:020000040800F2
:1000000000400220DD1D00084B0700084D070008D6
:1000100000000000000000000000000000000000E0
:100020000000000000000000000000004F07000872
:1000300000000000000000005107000853070008FE
:100040002D1E00082D1E00082D1E00082D1E000864
:100050002D1E00082D1E00082D1E00082D1E000854
:100060002D1E00082D1E00082D1E00082D1E000844
:100070002D1E00082D1E00082D1E00082D1E000834
:100080002D1E00082D1E00082D1E00082D1E000824
:100090002D1E00082D1E00082D1E00082D1E000814
:1000A0002D1E00082D1E00082D1E00082D1E000804
:0C00B0002D1E00082D1E00082D1E00084B
:1000BC0010B5064C2378002B07D1054B002B02D032
:1000CC00044800E000BF0123237010BD0C00002089
:1000DC0000000000881E0008044B10B5002B03D054
:1000EC000349044800E000BF10BDC04600000000FA
:1000FC0010000020881E0008002243088B4274D395
:10010C0003098B425FD3030A8B4244D3030B8B420C
:10011C0028D3030C8B420DD3FF22090212BA030C15
:10012C008B4202D31212090265D0030B8B4219D3F6
:10013C0000E0090AC30B8B4201D3CB03C01A524116
:10014C00830B8B4201D38B03C01A5241430B8B425E
:10015C0001D34B03C01A5241030B8B4201D30B0347
:10016C00C01A5241C30A8B4201D3CB02C01A52416E
:10017C00830A8B4201D38B02C01A5241430A8B4231
:10018C0001D34B02C01A5241030A8B4201D30B021A
:10019C00C01A5241CDD2C3098B4201D3CB01C01A34
:1001AC00524183098B4201D38B01C01A524143093E
:1001BC008B4201D34B01C01A524103098B4201D32C
:1001CC000B01C01A5241C3088B4201D3CB00C01A99
:1001DC00524183088B4201D38B00C01A5241430811
:1001EC008B4201D34B00C01A5241411A00D2014636
:1001FC00524110467047FFE701B5002000F0F0F8BF
:10020C0002BDC0460029F7D076E7704703460B4382
:10021C007FD4002243088B4274D303098B425FD3F3
:10022C00030A8B4244D3030B8B4228D3030C8B421F
:10023C000DD3FF22090212BA030C8B4202D3121205
:10024C00090265D0030B8B4219D300E0090AC30BDA
:10025C008B4201D3CB03C01A5241830B8B4201D387
:10026C008B03C01A5241430B8B4201D34B03C01A70
:10027C005241030B8B4201D30B03C01A5241C30AE8
:10028C008B4201D3CB02C01A5241830A8B4201D359
:10029C008B02C01A5241430A8B4201D34B02C01A43
:1002AC005241030A8B4201D30B02C01A5241CDD2E8
:1002BC00C3098B4201D3CB01C01A524183098B4233
:1002CC0001D38B01C01A524143098B4201D34B011C
:1002DC00C01A524103098B4201D30B01C01A52417F
:1002EC00C3088B4201D3CB00C01A524183088B4206
:1002FC0001D38B00C01A524143088B4201D34B00EF
:10030C00C01A5241411A00D2014652411046704760
:10031C005DE0CA0F00D04942031000D34042534065
:10032C0000229C4603098B422DD3030A8B4212D325
:10033C00FC22890112BA030A8B420CD38901921157
:10034C008B4208D3890192118B4204D389013AD094
:10035C00921100E08909C3098B4201D3CB01C01A69
:10036C00524183098B4201D38B01C01A524143097C
:10037C008B4201D34B01C01A524103098B4201D36A
:10038C000B01C01A5241C3088B4201D3CB00C01AD7
:10039C00524183088B4201D38B00C01A5241D9D2EF
:1003AC0043088B4201D34B00C01A5241411A00D270
:1003BC000146634652415B10104601D34042002B6C
:1003CC0000D54942704763465B1000D3404201B5EB
:1003DC00002000F005F802BD0029F8D016E77047A0
:1003EC007047C046002B11D1002A0FD1002900D133
:1003FC00002802D00021C943080007B4024802A11A
:10040C004018029003BDC046D9FFFFFF03B46846F5
:10041C0001B5029800F006F8019B9E4602B00CBC98
:10042C007047C046F0B557464E464546DE46E0B5E9
:10043C0004000D009246994683B08B4230D82DD0E3
:10044C004946504600F0BAF829000600200000F09A
:10045C00B5F8331A9846203B34D49B4653465A463B
:10046C00934042461F00534693401E00AF423BD878
:10047C00AF4200D179E05B46A41BBD41002B00DAF2
:10048C0076E0002200230092019301235A46934008
:10049C000193012342469340009329E08242CFD935
:1004AC0000220023009201930C9B002B01D01C60B6
:1004BC005D600098019903B0F0BCBB46B246A946FA
:1004CC00A046F0BD42469B4620239B1A5246DA407A
:1004DC00414613004A468A40170042461F43534682
:1004EC0093401E00AF42C3D9002200230092019317
:1004FC004346002BD8D0FB0772081A4346467B08AC
:10050C000EE0AB4201D1A2420CD8A41A9D410120AD
:10051C0024196D410021013E24184D41002E06D0B6
:10052C00AB42EED9013E24196D41002EF8D1009852
:10053C0001995B4600196941002B24DB2B005A46BC
:10054C004646D3402A001C00F2405B461500002BA7
:10055C002ADB26009E40330026004746BE40320070
:10056C00801A9941009001919EE7A342BCD882E782
:10057C004246202300219B1A002200910192012265
:10058C00DA40019285E7424620239B1A2A00464610
:10059C009A402300F340464613432A001C00F240C5
:1005AC005B461500002BD4DA202342462F009B1B00
:1005BC0097402600DE403B003343CDE710B50029C1
:1005CC0003D100F007F8203002E0080000F002F838
:1005DC0010BDC0461C2101231B04984201D3000C02
:1005EC0010391B0A984201D3000A08391B0998429A
:1005FC0001D30009043902A2105C40187047C046B0
:10060C0004030202010101010000000000000000CF
:10061C0010B588B003AC14220021200001F001FCBD
:10062C000C4B596B012211435963596B0A400192CF
:10063C00019A596B0222114359635B6B1A40029267
:10064C00029B202303932100034801F023FA08B0F6
:10065C0010BDC046001002400004005072B6FEE708
:10066C0010B51748174B0360E1235B02436000236E
:10067C008360C36003610C2242618361C3610362C6
:10068C004362836200F0F2FB002811D10C48002178
:10069C0000F06CFC00280DD10948002100F08CFC06
:1006AC00002809D1064800F041FC002806D110BDF5
:1006BC00FFF7D4FFFFF7D2FFFFF7D0FFFFF7CEFF16
:1006CC00280000200044004010B594B005AC3C223A
:1006DC000021200001F0A5FB1022002101A801F04F
:1006EC00A0FB8020800001F095FA02230593FE33D5
:1006FC0008930023099340220A920D93200000F0E6
:10070C0083FC00280DD101A807230193002343602B
:10071C008360C360002100F05FFF002803D114B098
:10072C0010BDFFF79BFFFFF799FF10B501F01CFB05
:10073C00FFF7CAFFFFF76CFFFFF792FFFEE7FEE73C
:10074C00FEE77047704710B501F022FB10BD0000AA
:10075C0000B583B00B4B196C012211431964196C51
:10076C000A400092009ADA6B802149050A43DA6349
:10077C00DB6B0B400193019BC020C00001F01AFB06
:10078C0003B000BD0010024010B59AB00400142252
:10079C00002115A801F045FB4C22002102A801F014
:1007AC0040FB2268174B9A4201D01AB010BD0223AD
:1007BC00029302A800F0F0FF00281FD1124BDA6B55
:1007CC00802189020A43DA63DA6B0A400092009AAC
:1007DC00596B0122114359635B6B13400193019BCD
:1007EC0015A90C2315930A3B4B6000238B60CB603F
:1007FC000A61A020C00501F04DF9D6E7FFF72EFFE6
:10080C00DCE7C046004400400010024030B5EFF376
:10081C001084012282F3108801680B68124D2B4062
:10082C000B6084F31088EFF3108182F31088026858
:10083C0093680E4C2340936081F31088C36E012B98
:10084C0006D08C232022C2500023C366436730BDE0
:10085C00EFF3108183F31088026813681024A3430C
:10086C00136081F31088ECE7DFFEFFFFFEFFFFEF64
:10087C00F8B50400016883680269134342691343A5
:10088C00C26913430A68B048024013430B602268E4
:10089C005368AE490B40E1680B435360A169226871
:1008AC00AB4B9A4204D0AB4B9A4201D0236A19430A
:1008BC009368A94803400B4393602268D36A0F21C5
:1008CC008B43616A0B43D3622368A44A934219D0C9
:1008DC00A34A934227D0A34A934235D0A24A9342CB
:1008EC0000D188E0A14A934200D19DE0A04A9342F6
:1008FC0000D19BE0964A934237D0964A93424CD013
:10090C00102279E09B4A516D03220A40022A5CD0E6
:10091C0005D8002A5BD0012A5BD103326CE0032A94
:10092C0059D1053268E0934A516D0C220A40082ACD
:10093C0053D005D8002A52D0042A5DD010225BE097
:10094C000C2A4ED1043A57E08A4A516D30220A40A3
:10095C00202A48D005D8002A47D0102A47D10C3A73
:10096C004AE0302A45D1283A46E0824A526DC021ED
:10097C0009010A40802109018A4259D007D8002A6E
:10098C0058D08021C9008A4256D1042234E0C021BB
:10099C0009018A4252D108222EE0764A526DC021BA
:1009AC0089000A400139FF398A4249D007D8002A08
:1009BC0048D00139FF398A4246D104221CE0C021BB
:1009CC0089008A4242D1082216E0022214E0002259
:1009DC0012E0102210E010220EE002220CE00022A5
:1009EC000AE0102208E0022206E0002204E01022B5
:1009FC0002E0102200E0002255498B4228D05549D4
:100A0C008B4225D0E06980231B0298426AD0042ACD
:100A1C0000D1E1E000D9BEE0002A00D1C2E0022AF8
:100A2C0000D0B6E05448C1E00022E5E70022E3E73D
:100A3C000222E1E70022DFE71022DDE71022DBE7EC
:100A4C000222D9E70022D7E71022D5E71022D3E7FC
:100A5C00042A43D007D8002A0CD0022A01D1464DD3
:100A6C000EE00120BEE0082A02D180252D0207E00D
:100A7C000120B7E000F07CFE0500002D00D1AEE0B7
:100A8C00626A3E4B5200D75A39002800FFF734FBFC
:100A9C00666873009B19834200D9A2E0330383423A
:100AAC0000D2A8E03A00002328000021FFF79AFCAE
:100ABC00050E0B022B4302027008002180185941CD
:100ACC0032000023FFF78EFC2D4BC2182D4B9A429F
:100ADC0000D992E02368D860002083E000F020FD6C
:100AEC000500CAE7042A51D007D8002A09D0022AE7
:100AFC0001D121480AE0012074E0082A06D0012027
:100B0C0070E000F035FE002800D178E0626A1B4BE3
:100B1C005200D15AFFF7F0FA400061684B08C01838
:100B2C00FFF7EAFA0200103A174B9A4200D968E034
:100B3C0082B20F239A434008083B034013432268B8
:100B4C00D36000204EE0C046F369FFCFFFCFFFFF1C
:100B5C000080004000840040FFF4FF110038014089
:100B6C000044004000480040004C00400050004051
:100B7C00003C0140001002400024F400A01E0008BC
:100B8C0000FDFFFFFFFC0F00EFFF000000F0C8FCB2
:100B9C00B9E7012026E0082A02D18020000205E0F6
:100BAC0001201FE000F0E4FD00282CD0626A184BF5
:100BBC005200D15AFFF7A0FA61684B08C018FFF732
:100BCC009BFA0200103A134B9A421ED82368000479
:100BDC00000CD860002005E000F0A2FCE4E7002047
:100BEC0000E0012001236A22A352023AA3520023FF
:100BFC006367A367F8BD0120F4E70120F2E700204A
:100C0C00F0E70120EEE70020ECE70120EAE7C04620
:100C1C00A01E0008EFFF0000836A1B0706D50268C0
:100C2C0053682C490B40816B0B435360836ADB0781
:100C3C0006D50268536828490B40C16A0B435360C0
:100C4C00836A9B0706D50268536824490B40016BE5
:100C5C000B435360836A5B0706D5026853682049CF
:100C6C000B40416B0B435360836ADB0606D502686D
:100C7C0093681C490B40C16B0B439360836A9B06C2
:100C8C0006D50268936818490B40016C0B439360BE
:100C9C00836A5B060BD50268536814490B40416CA0
:100CAC000B435360426C80235B039A420AD0836AE5
:100CBC001B0606D5026853680D490B40C16C0B43EB
:100CCC0053607047026853680A490B40816C0B43B0
:100CDC005360ECE7FF7FFFFFFFFFFDFFFFFFFEFF11
:100CEC00FFFFFBFFFFEFFFFFFFDFFFFFFFFFEFFF4C
:100CFC00FFFFF7FFFFFF9FFFF8B5CE46474680B5D5
:100D0C0006000D0017009946089B98463368DC696D
:100D1C002C40641B63425C41BC4233D143460133DB
:100D2C00F4D001F041F84B46C01A40452FD8434649
:100D3C00002B2ED0326813685B07E7D5802DE5D0E9
:100D4C00402DE3D0D3691B0710D4D3691B05DDD527
:100D5C0080231B0113623000FFF758FD90232022E3
:100D6C00F2500C3B0022F25403200CE008241462D5
:100D7C003000FFF74BFD9023F4500C3B0022F25453
:100D8C00012000E00020C0BCB946B046F8BD0320ED
:100D9C00F9E70320F7E7000030B583B00400902397
:100DAC000022C25001F000F8050023681B681B07E5
:100DBC0010D423681B685B072BD420238822A350F4
:100DCC000432A3500023E3662367083AA35400209F
:100DDC0003B030BD8021234B009303000022890314
:100DEC002000FFF789FF0028E3D0EFF310810123E7
:100DFC0083F310882268136880208343136081F387
:100E0C00108888232022E250043B0022E2547D38D3
:100E1C00DEE78021134B00932B000022C903200036
:100E2C00FFF76AFF0028C8D0EFF31080012282F38D
:100E3C00108821680B680C4D2B400B6080F31088D8
:100E4C00EFF3108082F3108821688B6893438B60DA
:100E5C0080F310888C231F32E250083B0022E254AE
:100E6C000320B5E7FFFFFF01DFFEFFFF10B5041EF7
:100E7C0030D08823C358002B22D088232422E25060
:100E8C002268136801218B431360A36A002B1DD1C8
:100E9C002000FFF7EDFC012811D0226853680E49A1
:100EAC000B405360226893682A218B43936022681D
:100EBC00136829390B4313602000FFF76DFF10BD39
:100ECC0084330022C254FFF75FFCD6E72000FFF703
:100EDC00A3FEDDE70120F2E7FFB7FFFFF8B5040042
:100EEC00436E002B05D101336A228352023A83529E
:100EFC00F8BD026895686D0E07231D409268520F6D
:100F0C001340084FF85CC000074EF15CFFF77EF908
:100F1C006A23E052785DC000715DFFF777F96823B2
:100F2C00E052E5E7C01E0008B81E000870B5842327
:100F3C00C35C012B15D08424012606558825242357
:100F4C004351026813681168B1431160064A13409B
:100F5C000022426601680B60202343510255002099
:100F6C0070BD0220FCE7C046FFFFFFDFF8B50400B0
:100F7C000A008423C35C012B1BD0842501206055FF
:100F8C0088262423A35123681F681968814319609C
:100F9C0020688368DB00D908114381602000FFF7CB
:100FAC009DFF23681F602023A3510023635500205D
:100FBC00F8BD0220FCE70000F8B504000B00842209
:100FCC00825C012A1BD084250120605588262422AE
:100FDC00A2512268176811688143116022689168D8
:100FEC0008480140194391602000FFF777FF236800
:100FFC001F602023A351002363550020F8BD02205D
:10100C00FCE7C046FFFFFFF170B582B0041E00D1B3
:10101C005EE20368DB0739D5C14A916838230B407F
:10102C00D16803220A40102B26D0082B26D06368E7
:10103C008022520293427FD0A022D202934200D14E
:10104C0081E0B74B1A68B7490A401A601A68B6496A
:10105C000A401A606368002B00D180E000F0A4FE07
:10106C000500AF4B1B689B0310D400F09DFE401B8A
:10107C006428F6D903202CE2032AD6D1A84B1B688E
:10108C009B0303D56368002B00D124E223689B07E4
:10109C0031D5A34A916838230B40D16803220A400A
:1010AC00102B6AD0002B6BD19D4A1268520503D5C8
:1010BC00E268002A00D110E2994842689B490A4034
:1010CC00616909020A434260002B0DD103689849FB
:1010DC000B4021690B4303600368DB0A07221A40AB
:1010EC00944BD340944A1360944B186800F010FE54
:1010FC00002800D0F3E123681B0700D481E0884B63
:10110C009A6838231340182B73D0A369002B00D195
:10111C00B4E0834A136E01210B43136600F044FEC6
:10112C0005007F4B1B6E9B076BD400F03DFE401BF4
:10113C000228F6D90320CCE1794A116880235B029E
:10114C000B43136086E7764B19688022D2020A4360
:10115C001A601968802252020A431A607AE700F07A
:10116C0023FE05006E4B1B689B038FD500F01CFE05
:10117C00401B6428F6D90320ABE1022A92D193E7F5
:10118C00E368002B22D0664A136869490B40216939
:10119C000B431360116880235B000B43136000F05A
:1011AC0003FE05005E4B1B685B0506D400F0FCFDDE
:1011BC00401B0228F6D903208BE159494B685B4A46
:1011CC0013406269120213434B6094E7544A13684C
:1011DC005B490B40136000F0E7FD0500504B1B68AA
:1011EC005B0588D500F0E0FD401B0228F6D90320F2
:1011FC006FE14B4B1B6E9B0703D5A369002B00D1F2
:10120C006FE123685B0700D4A2E0454B9A68382352
:10121C001340202B45D0424BDB6BDB004AD4404BB8
:10122C00DA6B802149050A43DA63DB6B0B400193CF
:10123C00019B0125434B1B68DB053DD5A368012BA6
:10124C004ED0052B52D0364BDA6D01218A43DA652C
:10125C00DA6D03318A43DA65A368002B50D000F0B5
:10126C00A3FD06002E4BDB6D9B076FD400F09CFD9D
:10127C00801B354B9842F5D903202AE1284A136E7E
:10128C0001218B43136600F08FFD0500244B1B6E70
:10129C009B07B6D500F088FD401B0228F6D9032029
:1012AC0017E11F4BDB6D9B0752D5A368002B4FD169
:1012BC0001200EE10025BDE7224A116880235B0066
:1012CC000B43136000F070FD06001E4B1B68DB0522
:1012DC00B4D400F069FD801B0228F6D90320F8E095
:1012EC000F4AD36D01210B43D365B5E70C4BDA6D77
:1012FC0004210A43DA65DA6D03390A43DA65ABE790
:10130C0000F052FD0600064BDB6D9B071ED500F06E
:10131C004BFD801B0C4B9842F5D90320D9E0C046FD
:10132C0000100240FFFFFEFFFFFFFBFFFF80FFFFEF
:10133C00FFC7FFFF0024F400080000200400002079
:10134C00FFFEFFFF0070004088130000012D19D034
:10135C0023689B062FD5E369002B19D06A4A1168C4
:10136C008023DB030B43136000F01EFD0500664B6E
:10137C001B681B021FD400F017FD401B0228F6D976
:10138C000320A6E0604AD36B60490B40D363DFE7D0
:10139C005D4A13685E490B40136000F005FD0500C3
:1013AC00594B1B681B0206D500F0FEFC401B0228A3
:1013BC00F6D903208DE0236A002B00D193E0524A2A
:1013CC00916838220A40102A5AD0022B12D04E4A69
:1013DC00136850490B40136000F0E6FC04004A4BC4
:1013EC001B689B0145D500F0DFFC001B0228F6D9D9
:1013FC0003206EE0444A136846490B40136000F02A
:10140C00D3FC0500404B1B689B0106D500F0CCFCBF
:10141C00401B0228F6D903205BE03B4AD3683E49C7
:10142C001940636AA06A0343E06A00020343206B1D
:10143C000343606B0343A06B03430B43D3601168FE
:10144C0080235B040B431360D16880235B050B4343
:10145C00D36000F0A9FC04002B4B1B689B0106D445
:10146C0000F0A2FC001B0228F6D9032031E000207A
:10147C002FE0254AD36829490B40D360002028E08F
:10148C00012B32D0204BDA6803231340616A8B4264
:10149C002DD170231340A16A8B422AD1FE21C901A0
:1014AC001140E36A1B02994225D1F8239B03134098
:1014BC00216B8B4221D1E0231B051340616B8B42C6
:1014CC001DD1520F5207A36B9A421AD1002000E093
:1014DC00012002B070BD0120FBE70120F9E70120DB
:1014EC00F7E70120F5E70020F3E70120F1E7012001
:1014FC00EFE70120EDE70120EBE70120E9E7012010
:10150C00E7E70120E5E7C04600100240FFFFFFEFD0
:10151C00FFFFBFFFFFFFFFFE8C80C111FCFFFEEE43
:10152C0010B52A4B9B6838221A4207D1274B1A68F0
:10153C00D20A072313402648D84010BD234B9A6883
:10154C0038231340082B3BD0204B9A683823134088
:10155C00102B0DD01D4B9A6838231340202B31D003
:10156C001A4B9A6838231340182B26D00020E4E736
:10157C00164AD1680D3B0B40D26812090721114065
:10158C000131032B0FD01248FEF7B6FD0F4BDA6872
:10159C00120A7F23134058430C4BD968490F013171
:1015AC00FEF7AAFDC9E70B48FEF7A6FD074BDA6864
:1015BC00120A7F2313405843EEE7FA20C001BCE720
:1015CC000448BAE780200002B7E7C046001002408A
:1015DC000024F40000127A0070B504000D000028FD
:1015EC0000D1AAE0574B1A68072313408B4221D332
:1015FC0023689A070ED55B0705D5534A9168E023FB
:10160C00DB010B439360504A936850490B40A1682F
:10161C000B4393602368DB0754D56368012B20D000
:10162C00022B3BD0002B3FD1474A126852051CD4E9
:10163C0001206AE0434A136807218B432B43136054
:10164C0000F0B2FB06003F4B1A6807231340AB4275
:10165C00CED000F0A9FB801B3D4A9042F3D9032069
:10166C0053E0394A1268920369D537498A680720D2
:10167C00824313438B6000F097FB0600324B9B6850
:10168C0038221A406368DB009A421BD000F08CFBB6
:10169C00801B2F4B9842F1D9032036E02A4A12685E
:1016AC009201E2D4012030E0032B05D0264AD26D02
:1016BC009207DAD4012028E0234A126E9207D4D480
:1016CC00012022E01F4B1A6807231340AB421DD8A0
:1016DC0023685B0706D51C4A93681E490B40E168DA
:1016EC000B439360FFF71CFF174B9A68120A0F23EA
:1016FC001340194A9B009A581F231340D840174B8C
:10170C001860174B186800F003FB70BD0D4A136886
:10171C0007218B432B43136000F046FB0600094B5B
:10172C001A6807231340AB42D2D000F03DFB801B5C
:10173C00074B9842F3D90320E7E70120E5E70120A6
:10174C00E3E7C0460020024000100240FFF0FFFF1C
:10175C0088130000FF8FFFFFE81E00080800002020
:10176C0004000020014B18687047C0460800002098
:10177C0010B5FFF7F7FF064B9A68120B07231340BF
:10178C00044A9B009A581F231340D84010BDC046F2
:10179C0000100240C81E0008F0B583B004000368B6
:1017AC009B0362D5AE4BDB6BDB001ED4AC4BDA6B10
:1017BC00802149050A43DA63DB6B0B400193019BE3
:1017CC000126A84A116880235B000B43136000F0CC
:1017DC00EBFA0500A34B1B68DB0508D400F0E4FA18
:1017EC00401B0228F6D9032502E00026E9E7002574
:1017FC00002D23D19A4BD96DC02292000B001340BF
:10180C00114212D0226C9A420DD0954AD36D964952
:10181C000B40D06D802149020143D165D16D9348B5
:10182C000140D165D365DB0710D4002D06D18C4A5D
:10183C00D36D8D490B40216C0B43D365012E15D113
:10184C00874AD36B8A490B40D3630FE000F0ACFAA4
:10185C000700834BDB6D9B07E7D400F0A5FAC01B98
:10186C00844B9842F5D90325DFE700252368DB0775
:10187C0006D57B4A536D03218B4361680B4353653B
:10188C0023689B0706D5764A536D0C218B43A168C0
:10189C000B43536523685B0706D5714A536D3021A2
:1018AC008B43E1680B4353652368DB0606D56C4A12
:1018BC00536D71490B4021690B4353652368DB045D
:1018CC0006D5674A536D68490B4061690B435365F4
:1018DC0023689B0506D5624A536D68490B40A16A83
:1018EC000B43536523685B0506D55D4A536D64490C
:1018FC000B40E16A0B43536523689B0606D5584A97
:10190C00536D60490B40A1690B43536523685B061B
:10191C0006D5534A536D5C490B40E1690B43536543
:10192C0023685B040BD54E4A536D9B009B08216BBF
:10193C000B435365226B8023DB059A4262D02368EC
:10194C001B0306D5464A536D40218B43616B0B43F9
:10195C00536523689B020BD5414A536D4B490B4091
:10196C00A16B0B435365A26B8023DB039A4250D0CF
:10197C0023685B020BD53A4A536D45490B40E16B2A
:10198C000B435365E26B80235B049A4248D0236877
:10199C001B0509D5324A936D03218B43216A0B43F6
:1019AC009365236A012B40D023689B0409D52C4AEC
:1019BC00936D0C218B43616A0B439365636A042B13
:1019CC0039D02368DB010BD5254A936D2D490B408B
:1019DC00616C0B439365626C80239B019A4230D0FF
:1019EC0023689B010BD51E4A936D1F490B40A16CBC
:1019FC000B439365A26C80235B009A4228D028008D
:101A0C0003B0F0BD164AD16880235B020B43D36050
:101A1C0095E7134AD16880235B040B43D360A7E797
:101A2C000F4AD1680B43D360B1E7D16880235B02C6
:101A3C000B43D360B8E7D16880235B020B43D360C0
:101A4C00BFE7074AD16880235B040B43D360C7E729
:101A5C00034AD16880235B040B43D360CFE7C046B5
:101A6C000010024000700040FFFCFFFFFFFFFEFF74
:101A7C00FFFFFFEF88130000FFF3FFFFFFFFF3FFF3
:101A8C00FFFFCFFFFFCFFFFFFF3FFFFFFFFFBFFFBA
:101A9C00FFFFFFFEF0B5002359E086685F000324CA
:101AAC00BC40A643CC68BC40344384604468944337
:101ABC004E683609012232409A402243426056E079
:101ACC00DE080836B600375805321A4092000F244B
:101ADC009440A7430C69944022003A43325059E099
:101AEC00042600E00026A64034003C43444E183245
:101AFC00920094513768EA433E00AE434C68E402CE
:101B0C0001D53E002E433E4C266067683E001640D1
:101B1C004C68A40201D53E002E43394C66608426E5
:101B2C00A7593E0016404C68A40301D53E002E4335
:101B3C00334C8427E6518026A65932404C68E40386
:101B4C0001D52A0032432E4D80242A5101330C68D2
:101B5C002200DA4053D001229A402500154014424D
:101B6C00F4D04E6803243440013C012C95D94C68C8
:101B7C0003222240032A08D0C4685E000322B2402C
:101B8C0094438A68B2402243C2604C6803222240CC
:101B9C00022A95D004685E0003221700B740BC43AC
:101BAC004F683A40B240224302604C68C022920215
:101BBC001442CBD09A0814001834A400104EA75924
:101BCC0003241C40E4000F26A640B743A026F605CC
:101BDC00B04287D00B4EB0420BD00B4EB0420AD065
:101BEC000A4EB04209D00A4EB04200D178E7052621
:101BFC0079E7012677E7022675E7032673E7F0BD40
:101C0C00001802400004005000080050000C005066
:101C1C000010005010B5104A136810490B400343D4
:101C2C00136080239B00984201D0002010BD0C4B08
:101C3C001B685800C01840000A49FEF75DFA0130D5
:101C4C00054B5B695B0503D5002803D00138F7E72A
:101C5C000020EBE70320E9E700700040FFF9FFFFED
:101C6C000800002040420F0070B5002811DB8308EB
:101C7C00134DC0339B005C5903221040C000FC3252
:101C8C0016008640B44389010A40824022435A51CF
:101C9C0070BD0F230340083B9B0806339B00094A89
:101CAC00944663445C6803221040C000FC3215006B
:101CBC008540AC4389010A40824022435A60E7E7E1
:101CCC0000E100E000ED00E0013880235B04984265
:101CDC000FD2094A50600948036A1B021B0AC02133
:101CEC0009060B4303620023936007331360002043
:101CFC0070470120FCE7C04610E000E000ED00E07A
:101D0C0010B5FFF7B1FF10BD10B5FFF7DDFF10BD2B
:101D1C0070B50400114B1978002901D1012070BD58
:101D2C000F4B1D68FA208000FEF7E6F90100280031
:101D3C00FEF7E2F9FFF7E8FF00280DD1032C01D9DB
:101D4C000120ECE70130002221004042FFF7D8FFD0
:101D5C00044B1C600020E2E70120E0E700000020BB
:101D6C00080000200400002010B5084A11688023E8
:101D7C005B000B4313600320FFF7CAFF041E02D065
:101D8C000124200010BDFEF7E3FCFAE7002002401E
:101D9C00034B1B78034A11685B1813607047C046ED
:101DAC0000000020BC000020014B18687047C046A2
:101DBC00BC000020034A136803490B400343136023
:101DCC007047C04600000140FFF9FFFF704700005C
:101DDC000D488546FFF7FAFF0C480D490D4A0023C4
:101DEC0002E0D458C4500433C4188C42F9D30A4AC4
:101DFC000A4C002301E013600432A242FBD300F032
:101E0C0019F8FEF792FCFEE70040022000000020CB
:101E1C000C000020381F00080C000020C00000201F
:101E2C00FEE703008218934200D17047197001330A
:101E3C00F9E7000070B500260C4C0D4D641BA41086
:101E4C00A64209D1002600F019F80A4C0A4D641B71
:101E5C00A410A64205D170BDB300EB5898470136CB
:101E6C00EEE7B300EB5898470136F2E7301F000855
:101E7C00301F0008341F0008301F0008F8B5C0469A
:101E8C00F8BC08BC9E467047F8B5C046F8BC08BC08
:041E9C009E467047A7
:101EA000010002000400060008000A000C001000F7
:101EB0002000400080000001080402040801010124
:101EC0000101010307010000000000000000000004
:101ED00000000000000000000100000002000000FF
:101EE00003000000040000000000000000000000EB
:101EF00000000000000000000000000000000000E2
:101F000000000000000000000100000002000000CE
:101F100003000000040000000600000007000000AD
:081F20000800000009000000A8
:081F280008E5FF7F0100000045
:041F3000E5000008C0
:041F3400BD000008E4
:0C1F380001000000040000000024F40080
:0400000508001DDDF5
:00000001FF
