:020000040800F2
:10000000004002200D5D0008FD070008FF07000802
:1000100000000000000000000000000000000000E0
:1000200000000000000000000000000001080008BF
:100030000000000000000000030800080508000898
:100040005D5D00085D5D00085D5D00085D5D0008A8
:100050005D5D00085D5D00085D5D00085D5D000898
:100060000D0800085D5D00085D5D00085D5D00082D
:100070005D5D00085D5D00085D5D00085D5D000878
:100080005D5D00085D5D00085D5D00085D5D000868
:100090005D5D00085D5D00085D5D00085D5D000858
:1000A0005D5D00085D5D00085D5D00085D5D000848
:0C00B0005D5D00085D5D00085D5D0008FE
:1000C00010B5064C2378002B07D1054B002B02D02E
:1000D000044800E000BF0123237010BDA0010020F0
:1000E00000000000586E0008044B10B5002B03D030
:1000F0000349044800E000BF10BDC04600000000F6
:10010000A4010020586E000803B47146490840005D
:100110004900095E49008E4403BC70470022430831
:100120008B4274D303098B425FD3030A8B4244D3BF
:10013000030B8B4228D3030C8B420DD3FF22090201
:1001400012BA030C8B4202D31212090265D0030BC0
:100150008B4219D300E0090AC30B8B4201D3CB03B6
:10016000C01A5241830B8B4201D38B03C01A5241F8
:10017000430B8B4201D34B03C01A5241030B8B42FA
:1001800001D30B03C01A5241C30A8B4201D3CB02E5
:10019000C01A5241830A8B4201D38B02C01A5241CA
:1001A000430A8B4201D34B02C01A5241030A8B42CD
:1001B00001D30B02C01A5241CDD2C3098B4201D3E5
:1001C000CB01C01A524183098B4201D38B01C01A63
:1001D000524143098B4201D34B01C01A52410309DA
:1001E0008B4201D30B01C01A5241C3088B4201D389
:1001F000CB00C01A524183088B4201D38B00C01A36
:10020000524143088B4201D34B00C01A5241411A5C
:1002100000D20146524110467047FFE701B5002069
:1002200000F0F0F802BDC0460029F7D076E770472D
:1002300003460B437FD4002243088B4274D3030947
:100240008B425FD3030A8B4244D3030B8B4228D3E8
:10025000030C8B420DD3FF22090212BA030C8B420E
:1002600002D31212090265D0030B8B4219D300E0AE
:10027000090AC30B8B4201D3CB03C01A5241830B33
:100280008B4201D38B03C01A5241430B8B4201D3E3
:100290004B03C01A5241030B8B4201D30B03C01A0C
:1002A0005241C30A8B4201D3CB02C01A5241830A86
:1002B0008B4201D38B02C01A5241430A8B4201D3B5
:1002C0004B02C01A5241030A8B4201D30B02C01ADF
:1002D0005241CDD2C3098B4201D3CB01C01A524146
:1002E00083098B4201D38B01C01A524143098B42CF
:1002F00001D34B01C01A524103098B4201D30B01B8
:10030000C01A5241C3088B4201D3CB00C01A5241DC
:1003100083088B4201D38B00C01A524143088B42A1
:1003200001D34B00C01A5241411A00D2014652413A
:10033000104670475DE0CA0F00D04942031000D359
:100340004042534000229C4603098B422DD3030AAE
:100350008B4212D3FC22890112BA030A8B420CD3BE
:10036000890192118B4208D3890192118B4204D3E7
:1003700089013AD0921100E08909C3098B4201D367
:10038000CB01C01A524183098B4201D38B01C01AA1
:10039000524143098B4201D34B01C01A5241030918
:1003A0008B4201D30B01C01A5241C3088B4201D3C7
:1003B000CB00C01A524183088B4201D38B00C01A74
:1003C0005241D9D243088B4201D34B00C01A52414B
:1003D000411A00D20146634652415B10104601D3D8
:1003E0004042002B00D54942704763465B1000D362
:1003F000404201B5002000F005F802BD0029F8D008
:1004000016E770477047C046002B11D1002A0FD164
:10041000002900D1002802D00021C943080007B4F8
:10042000024802A14018029003BDC046D9FFFFFF59
:1004300003B4684601B5029800F006F8019B9E4699
:1004400002B00CBC7047C046F0B557464E46454614
:10045000DE46E0B504000D009246994683B08B421B
:1004600030D82DD04946504600F0BAF82900060091
:10047000200000F0B5F8331A9846203B34D49B4650
:1004800053465A46934042461F00534693401E002F
:10049000AF423BD8AF4200D179E05B46A41BBD41DF
:1004A000002B00DA76E00022002300920193012362
:1004B0005A4693400193012342469340009329E01A
:1004C0008242CFD900220023009201930C9B002B83
:1004D00001D01C605D600098019903B0F0BCBB4680
:1004E000B246A946A046F0BD42469B4620239B1A31
:1004F0005246DA40414613004A468A4017004246B7
:100500001F43534693401E00AF42C3D9002200232D
:10051000009201934346002BD8D0FB0772081A4380
:1005200046467B080EE0AB4201D1A2420CD8A41A89
:100530009D41012024196D410021013E24184D41A7
:10054000002E06D0AB42EED9013E24196D41002E9B
:10055000F8D1009801995B4600196941002B24DB12
:100560002B005A464646D3402A001C00F2405B4608
:100570001500002B2ADB26009E403300260047464C
:10058000BE403200801A9941009001919EE7A3423B
:10059000BCD882E74246202300219B1A002200910A
:1005A00001920122DA40019285E7424620239B1AFC
:1005B0002A0046469A402300F340464613432A0049
:1005C0001C00F2405B461500002BD4DA2023424683
:1005D0002F009B1B97402600DE403B003343CDE7B6
:1005E00010B5002903D100F007F8203002E0080020
:1005F00000F002F810BDC0461C2101231B049842E4
:1006000001D3000C10391B0A984201D3000A0839A3
:100610001B09984201D30009043902A2105C40185A
:100620007047C046040302020101010100000000FE
:100630000000000010B588B003AC14220021200097
:1006400005F060FE0C4B596B012211435963596B45
:100650000A400192019A596B0222114359635B6B64
:100660001A400292029B202303932100034801F0C9
:100670008DFC08B010BDC0460010024000040050C0
:1006800010B51400012392B205485B4200F0E9FB6B
:10069000002801D1200010BD01204042FBE7C046E8
:1006A000BC01002072B6FEE710B51748174B036077
:1006B000E1235B02436000238360C36003610C227B
:1006C00042618361C36103624362836200F0BAFCEA
:1006D000002811D10C48002100F034FD00280DD174
:1006E0000948002100F054FD002809D1064800F017
:1006F00009FD002806D110BDFFF7D4FFFFF7D2FF98
:10070000FFF7D0FFFFF7CEFFBC0100200044004000
:1007100010B59AB00BAC3C220021200005F0F2FD90
:100720001022002107A805F0EDFD1822002101A8E4
:1007300005F0E8FD8020800001F0FAFC22230B93F5
:10074000DE330E938023DB03129300230F934022AA
:1007500010921393200000F09DFD002826D107A8D9
:1007600007230793002343608360C360002101F0E7
:1007700079F800281CD10F4BDA6B802149020A431B
:10078000DA63DB6B0B400093009B01A8002301930D
:100790008022920542608360074BC360222303617D
:1007A000023B436101F0BCFA1AB010BDFFF77AFFBB
:1007B000FFF778FF001002407FBB000010B501F08A
:1007C00093FDFFF7A5FFFFF735FFFFF76DFF04F07F
:1007D00099F8084B1B68986800230222002105F055
:1007E000F3FB054805F0E6FB01F024FE01F0B4FE42
:1007F000FEE7C04614010020806E0008FEE7FEE719
:100800007047704710B501F083FD10BD10B5024868
:1008100002F094FD10BDC046A005002000B583B0D5
:100820000B4B196C012211431964196C0A40009298
:10083000009ADA6B802149050A43DA63DB6B0B40CF
:100840000193019BC020C00001F086FD03B000BDF4
:100850000010024010B59AB004001422002115A81F
:1008600005F050FD4C22002102A805F04BFD226846
:10087000174B9A4201D01AB010BD0223029302A86E
:1008800001F0D0F800281FD1124BDA6B80218902C9
:100890000A43DA63DA6B0A400092009A596B01222C
:1008A000114359635B6B13400193019B15A90C2302
:1008B00015930A3B4B6000238B60CB600A61A0203C
:1008C000C00501F063FBD6E7FFF7ECFEDCE7C046AE
:1008D000004400400010024030B5EFF310840122C4
:1008E00082F3108801680B68124D2B400B6084F373
:1008F0001088EFF3108182F31088026893680E4C21
:100900002340936081F31088C36E012B06D08C23A3
:100910002022C2500023C366436730BDEFF310812D
:1009200083F31088026813681024A343136081F3D3
:100930001088ECE7DFFEFFFFFEFFFFEFF8B50400D5
:10094000016883680269134342691343C269134310
:100950000A68B048024013430B6022685368AE49EE
:100960000B40E1680B435360A1692268AB4B9A428C
:1009700004D0AB4B9A4201D0236A19439368A9482B
:1009800003400B4393602268D36A0F218B43616A53
:100990000B43D3622368A44A934219D0A34A9342DB
:1009A00027D0A34A934235D0A24A934200D188E08F
:1009B000A14A934200D19DE0A04A934200D19BE01E
:1009C000964A934237D0964A93424CD0102279E00F
:1009D0009B4A516D03220A40022A5CD005D8002AA6
:1009E0005BD0012A5BD103326CE0032A59D1053276
:1009F00068E0934A516D0C220A40082A53D005D86A
:100A0000002A52D0042A5DD010225BE00C2A4ED17D
:100A1000043A57E08A4A516D30220A40202A48D0D1
:100A200005D8002A47D0102A47D10C3A4AE0302A8C
:100A300045D1283A46E0824A526DC02109010A4058
:100A4000802109018A4259D007D8002A58D0802134
:100A5000C9008A4256D1042234E0C02109018A42E9
:100A600052D108222EE0764A526DC02189000A40F8
:100A70000139FF398A4249D007D8002A48D00139C4
:100A8000FF398A4246D104221CE0C02189008A42F3
:100A900042D1082216E0022214E0002212E01022C5
:100AA00010E010220EE002220CE000220AE01022E8
:100AB00008E0022206E0002204E0102202E01022F8
:100AC00000E0002255498B4228D055498B4225D061
:100AD000E06980231B0298426AD0042A00D1E1E039
:100AE00000D9BEE0002A00D1C2E0022A00D0B6E060
:100AF0005448C1E00022E5E70022E3E70222E1E7F3
:100B00000022DFE71022DDE71022DBE70222D9E72F
:100B10000022D7E71022D5E71022D3E7042A43D0DA
:100B200007D8002A0CD0022A01D1464D0EE0012040
:100B3000BEE0082A02D180252D0207E00120B7E09F
:100B400000F05CFF0500002D00D1AEE0626A3E4B74
:100B50005200D75A39002800FFF7E0FA66687300A0
:100B60009B19834200D9A2E03303834200D2A8E05C
:100B70003A00002328000021FFF746FC050E0B0277
:100B80002B430202700800218018594132000023D3
:100B9000FFF73AFC2D4BC2182D4B9A4200D992E038
:100BA0002368D860002083E000F000FE0500CAE75B
:100BB000042A51D007D8002A09D0022A01D121489D
:100BC0000AE0012074E0082A06D0012070E000F05D
:100BD00015FF002800D178E0626A1B4B5200D15A01
:100BE000FFF79CFA400061684B08C018FFF796FABF
:100BF0000200103A174B9A4200D968E082B20F23E4
:100C00009A434008083B034013432268D360002006
:100C10004EE0C046F369FFCFFFCFFFFF00800040EA
:100C200000840040FFF4FF11003801400044004000
:100C300000480040004C004000500040003C014093
:100C4000001002400024F400F86F000800FDFFFFD0
:100C5000FFFC0F00EFFF000000F0A8FDB9E7012046
:100C600026E0082A02D18020000205E001201FE0D2
:100C700000F0C4FE00282CD0626A184B5200D15AF2
:100C8000FFF74CFA61684B08C018FFF747FA0200FB
:100C9000103A134B9A421ED823680004000CD86007
:100CA000002005E000F082FDE4E7002000E00120E4
:100CB00001236A22A352023AA35200236367A36767
:100CC000F8BD0120F4E70120F2E70020F0E7012061
:100CD000EEE70020ECE70120EAE7C046F86F0008E5
:100CE000EFFF0000836A1B0706D5026853682C4992
:100CF0000B40816B0B435360836ADB0706D50268A8
:100D0000536828490B40C16A0B435360836A9B07B1
:100D100006D50268536824490B40016B0B435360AE
:100D2000836A5B0706D50268536820490B40416B14
:100D30000B435360836ADB0606D5026893681C493F
:100D40000B40C16B0B439360836A9B0606D5026818
:100D5000936818490B40016C0B439360836A5B06F0
:100D60000BD50268536814490B40416C0B43536028
:100D7000426C80235B039A420AD0836A1B0606D525
:100D8000026853680D490B40C16C0B4353607047B8
:100D9000026853680A490B40816C0B435360ECE7CF
:100DA000FF7FFFFFFFFFFDFFFFFFFEFFFFFFFBFFDA
:100DB000FFEFFFFFFFDFFFFFFFFFEFFFFFFFF7FF8B
:100DC000FFFF9FFFF8B5CE46474680B506000D00F1
:100DD00017009946089B98463368DC692C40641BD1
:100DE00063425C41BC4233D143460133F4D001F04D
:100DF0009BFA4B46C01A40452FD84346002B2ED0B5
:100E0000326813685B07E7D5802DE5D0402DE3D02D
:100E1000D3691B0710D4D3691B05DDD580231B01C3
:100E200013623000FFF758FD90232022F2500C3B54
:100E30000022F25403200CE0082414623000FFF773
:100E40004BFD9023F4500C3B0022F254012000E0B3
:100E50000020C0BCB946B046F8BD0320F9E7032026
:100E6000F7E7F0B5C64600B582B004000D00904625
:100E70001E008823C358202B6DD1002900D16FE0BC
:100E8000002A00D16EE0826880235B019A4204D17F
:100E90000369002B01D1CB0766D490230022E250D6
:100EA000083B2132E25001F03FFA0700542342464A
:100EB000E2520233E252A26880235B019A4202D0DE
:100EC000002398461EE02369002B2FD0002398466C
:100ED00018E088232022E25003203DE043461B888F
:100EE0002268DB05DB0D936202239C46E0448823E5
:100EF000E258673B1340212B38D13533E25A013A8F
:100F000092B2E2525623E35A002B12D000963B00D5
:100F1000002280212000FFF755FF0028D9D1002DA5
:100F2000DCD02A7823689A620135E0E7A8460025DC
:100F3000E8E700963B00002240212000FFF742FF37
:100F4000002803D188232022E25005E088232022B4
:100F5000E250032000E0022002B080BCB846F0BDA1
:100F60000120F9E70120F7E70120F5E70120F3E789
:100F700030B583B0040090230022C25001F0D4F9B0
:100F8000050023681B681B0710D423681B685B07D8
:100F90002BD420238822A3500432A3500023E366DD
:100FA0002367083AA354002003B030BD8021234BAF
:100FB00000930300002289032000FFF703FF0028AD
:100FC000E3D0EFF31081012383F3108822681368C4
:100FD00080208343136081F3108888232022E2500D
:100FE000043B0022E2547D38DEE78021134B00935E
:100FF0002B000022C9032000FFF7E4FE0028C8D020
:10100000EFF31080012282F3108821680B680C4DE9
:101010002B400B6080F31088EFF3108082F3108870
:1010200021688B6893438B6080F310888C231F3278
:10103000E250083B0022E2540320B5E7FFFFFF0126
:10104000DFFEFFFF10B5041E30D08823C358002BED
:1010500022D088232422E2502268136801218B4386
:101060001360A36A002B1DD12000FFF767FC012845
:1010700011D0226853680E490B4053602268936870
:101080002A218B4393602268136829390B4313602C
:101090002000FFF76DFF10BD84330022C254FFF71C
:1010A000D9FBD6E72000FFF71DFEDDE70120F2E7C0
:1010B000FFB7FFFFF8B50400436E002B05D10133E5
:1010C0006A228352023A8352F8BD026895686D0E17
:1010D00007231D409268520F1340084FF85CC00070
:1010E000074EF15CFFF7A4F86A23E052785DC00078
:1010F000715DFFF79DF86823E052E5E7187000087E
:101100001070000870B58423C35C012B15D08424B3
:101110000126065588252423435102681368116867
:10112000B1431160064A13400022426601680B6019
:10113000202343510255002070BD0220FCE7C04629
:10114000FFFFFFDFF8B504000A008423C35C012B16
:101150001BD084250120605588262423A3512368B1
:101160001F6819688143196020688368DB00D9080B
:10117000114381602000FFF79DFF23681F6020233B
:10118000A351002363550020F8BD0220FCE70000B6
:10119000F8B504000B008422825C012A1BD0842550
:1011A0000120605588262422A25122681768116800
:1011B0008143116022689168084801401943916099
:1011C0002000FFF777FF23681F602023A35100232F
:1011D00063550020F8BD0220FCE7C046FFFFFFF189
:1011E00070B501F0A1F80400254A116880235B0066
:1011F0000B431360224B1B685B0506D401F094F887
:10120000001B0228F6D9032070BD1D4D8023DB0191
:101210006B6001F089F804000023AB60184B9B68F9
:1012200038221A4207D001F07FF8001B154B984274
:10123000F4D90320E8E7124BC8321A601A6001F0B3
:1012400073F804000E4B1B689B0106D501F06CF887
:10125000001B0228F6D90320D6E7094B8022520151
:10126000DA6000229A61013A1A62074B074A1A6053
:10127000074B186801F00CF80028C5D00120C3E71F
:101280000010024088130000080000200024F40031
:101290000400002070B582B0041E00D15EE2036835
:1012A000DB0739D5C14A916838230B40D168032246
:1012B0000A40102B26D0082B26D0636880225202C9
:1012C00093427FD0A022D202934200D181E0B74B5B
:1012D0001A68B7490A401A601A68B6490A401A6083
:1012E0006368002B00D180E001F01EF80500AF4BD1
:1012F0001B689B0310D401F017F8401B6428F6D933
:1013000003202CE2032AD6D1A84B1B689B0303D5EC
:101310006368002B00D124E223689B0731D5A34AE0
:10132000916838230B40D16803220A40102B6AD001
:10133000002B6BD19D4A1268520503D5E268002A42
:1013400000D110E2994842689B490A40616909024C
:101350000A434260002B0DD1036898490B40216974
:101360000B4303600368DB0A07221A40944BD34007
:10137000944A1360944B186800F08AFF002800D04C
:10138000F3E123681B0700D481E0884B9A68382377
:101390001340182B73D0A369002B00D1B4E0834A0B
:1013A000136E01210B43136600F0BEFF05007F4B57
:1013B0001B6E9B076BD400F0B7FF401B0228F6D9C9
:1013C0000320CCE1794A116880235B020B43136050
:1013D00086E7764B19688022D2020A431A601968A0
:1013E000802252020A431A607AE700F09DFF05004E
:1013F0006E4B1B689B038FD500F096FF401B642843
:10140000F6D90320ABE1022A92D193E7E368002BDF
:1014100022D0664A136869490B4021690B43136067
:10142000116880235B000B43136000F07DFF050013
:101430005E4B1B685B0506D400F076FF401B02285C
:10144000F6D903208BE159494B685B4A1340626926
:10145000120213434B6094E7544A13685B490B40F4
:10146000136000F061FF0500504B1B685B0588D5D9
:1014700000F05AFF401B0228F6D903206FE14B4BC6
:101480001B6E9B0703D5A369002B00D16FE1236876
:101490005B0700D4A2E0454B9A6838231340202B09
:1014A00045D0424BDB6BDB004AD4404BDA6B8021EA
:1014B00049050A43DA63DB6B0B400193019B01256D
:1014C000434B1B68DB053DD5A368012B4ED0052B94
:1014D00052D0364BDA6D01218A43DA65DA6D033179
:1014E0008A43DA65A368002B50D000F01DFF060088
:1014F0002E4BDB6D9B076FD400F016FF801B354B26
:101500009842F5D903202AE1284A136E01218B4322
:10151000136600F009FF0500244B1B6E9B07B6D530
:1015200000F002FF401B0228F6D9032017E11F4BF1
:10153000DB6D9B0752D5A368002B4FD101200EE134
:101540000025BDE7224A116880235B000B4313602E
:1015500000F0EAFE06001E4B1B68DB05B4D400F069
:10156000E3FE801B0228F6D90320F8E00F4AD36D72
:1015700001210B43D365B5E70C4BDA6D04210A4317
:10158000DA65DA6D03390A43DA65ABE700F0CCFEC1
:101590000600064BDB6D9B071ED500F0C5FE801BC9
:1015A0000C4B9842F5D90320D9E0C0460010024008
:1015B000FFFFFEFFFFFFFBFFFF80FFFFFFC7FFFFF7
:1015C0000024F4000800002004000020FFFEFFFFBC
:1015D0000070004088130000012D19D023689B067D
:1015E0002FD5E369002B19D06A4A11688023DB03E9
:1015F0000B43136000F098FE0500664B1B681B024E
:101600001FD400F091FE401B0228F6D90320A6E06B
:10161000604AD36B60490B40D363DFE75D4A1368D0
:101620005E490B40136000F07FFE0500594B1B68BC
:101630001B0206D500F078FE401B0228F6D90320D5
:101640008DE0236A002B00D193E0524A9168382242
:101650000A40102A5AD0022B12D04E4A1368504921
:101660000B40136000F060FE04004A4B1B689B01B6
:1016700045D500F059FE001B0228F6D903206EE084
:10168000444A136846490B40136000F04DFE0500C4
:10169000404B1B689B0106D500F046FE401B02280C
:1016A000F6D903205BE03B4AD3683E491940636AA0
:1016B000A06A0343E06A00020343206B0343606BAC
:1016C0000343A06B03430B43D360116880235B0487
:1016D0000B431360D16880235B050B43D36000F09C
:1016E00023FE04002B4B1B689B0106D400F01CFE5C
:1016F000001B0228F6D9032031E000202FE0254A04
:10170000D36829490B40D360002028E0012B32D058
:10171000204BDA6803231340616A8B422DD170237A
:101720001340A16A8B422AD1FE21C9011140E36A0C
:101730001B02994225D1F8239B031340216B8B4256
:1017400021D1E0231B051340616B8B421DD1520F49
:101750005207A36B9A421AD1002000E0012002B088
:1017600070BD0120FBE70120F9E70120F7E7012028
:10177000F5E70020F3E70120F1E70120EFE7012082
:10178000EDE70120EBE70120E9E70120E7E7012091
:10179000E5E7C04600100240FFFFFFEFFFFFBFFF7D
:1017A000FFFFFFFE8C80C111FCFFFEEE10B52A4B3F
:1017B0009B6838221A4207D1274B1A68D20A07239E
:1017C00013402648D84010BD234B9A683823134055
:1017D000082B3BD0204B9A6838231340102B0DD098
:1017E0001D4B9A6838231340202B31D01A4B9A682E
:1017F00038231340182B26D00020E4E7164AD1687E
:101800000D3B0B40D2681209072111400131032B17
:101810000FD01248FEF782FC0F4BDA68120A7F23C2
:10182000134058430C4BD968490F0131FEF776FC41
:10183000C9E70B48FEF772FC074BDA68120A7F23F0
:1018400013405843EEE7FA20C001BCE70448BAE76A
:1018500080200002B7E7C046001002400024F400D8
:1018600000127A0070B504000D00002800D1AAE033
:10187000574B1A68072313408B4221D323689A07DA
:101880000ED55B0705D5534A9168E023DB010B4376
:101890009360504A936850490B40A1680B43936092
:1018A0002368DB0754D56368012B20D0022B3BD083
:1018B000002B3FD1474A126852051CD401206AE030
:1018C000434A136807218B432B43136000F02CFD20
:1018D00006003F4B1A6807231340AB42CED000F0FE
:1018E00023FD801B3D4A9042F3D9032053E0394A3F
:1018F0001268920369D537498A68072082431343E7
:101900008B6000F011FD0600324B9B6838221A40B4
:101910006368DB009A421BD000F006FD801B2F4B52
:101920009842F1D9032036E02A4A12689201E2D4A3
:10193000012030E0032B05D0264AD26D9207DAD47D
:10194000012028E0234A126E9207D4D4012022E01D
:101950001F4B1A6807231340AB421DD823685B074F
:1019600006D51C4A93681E490B40E1680B439360FF
:10197000FFF71CFF174B9A68120A0F231340194AEE
:101980009B009A581F231340D840174B1860174BE1
:10199000186800F07DFC70BD0D4A136807218B4369
:1019A0002B43136000F0C0FC0600094B1A680723A4
:1019B0001340AB42D2D000F0B7FC801B074B9842DB
:1019C000F3D90320E7E70120E5E70120E3E7C0467C
:1019D0000020024000100240FFF0FFFF88130000CB
:1019E000FF8FFFFF40700008080000200400002067
:1019F000014B18687047C0460800002010B5FFF77B
:101A0000F7FF064B9A68120B07231340044A9B000A
:101A10009A581F231340D84010BDC0460010024002
:101A200020700008F0B583B0040003689B0362D502
:101A3000AE4BDB6BDB001ED4AC4BDA6B802149056F
:101A40000A43DA63DB6B0B400193019B0126A84A32
:101A5000116880235B000B43136000F065FC0500F8
:101A6000A34B1B68DB0508D400F05EFC401B02287A
:101A7000F6D9032502E00026E9E70025002D23D151
:101A80009A4BD96DC02292000B001340114212D024
:101A9000226C9A420DD0954AD36D96490B40D06D79
:101AA000802149020143D165D16D93480140D16540
:101AB000D365DB0710D4002D06D18C4AD36D8D4938
:101AC0000B40216C0B43D365012E15D1874AD36B94
:101AD0008A490B40D3630FE000F026FC0700834BDC
:101AE000DB6D9B07E7D400F01FFCC01B844B9842C2
:101AF000F5D90325DFE700252368DB0706D57B4AF8
:101B0000536D03218B4361680B43536523689B0727
:101B100006D5764A536D0C218B43A1680B43536560
:101B200023685B0706D5714A536D30218B43E1680A
:101B30000B4353652368DB0606D56C4A536D714928
:101B40000B4021690B4353652368DB0406D5674AC4
:101B5000536D68490B4061690B43536523689B05CE
:101B600006D5624A536D68490B40A16A0B43536521
:101B700023685B0506D55D4A536D64490B40E16AF5
:101B80000B43536523689B0606D5584A536D60493D
:101B90000B40A1690B43536523685B0606D5534A86
:101BA000536D5C490B40E1690B43536523685B044B
:101BB0000BD54E4A536D9B009B08216B0B4353651D
:101BC000226B8023DB059A4262D023681B0306D573
:101BD000464A536D40218B43616B0B435365236829
:101BE0009B020BD5414A536D4B490B40A16B0B43F4
:101BF0005365A26B8023DB039A4250D023685B02BB
:101C00000BD53A4A536D45490B40E16B0B43536585
:101C1000E26B80235B049A4248D023681B0509D5F8
:101C2000324A936D03218B43216A0B439365236AE8
:101C3000012B40D023689B0409D52C4A936D0C21BD
:101C40008B43616A0B439365636A042B39D0236825
:101C5000DB010BD5254A936D2D490B40616C0B437D
:101C60009365626C80239B019A4230D023689B016C
:101C70000BD51E4A936D1F490B40A16C0B43936516
:101C8000A26C80235B009A4228D0280003B0F0BDEC
:101C9000164AD16880235B020B43D36095E7134A51
:101CA000D16880235B040B43D360A7E70F4AD16858
:101CB0000B43D360B1E7D16880235B020B43D36051
:101CC000B8E7D16880235B020B43D360BFE7074AC4
:101CD000D16880235B040B43D360C7E7034AD16814
:101CE00080235B040B43D360CFE7C0460010024063
:101CF00000700040FFFCFFFFFFFFFEFFFFFFFFEF54
:101D000088130000FFF3FFFFFFFFF3FFFFFFCFFF8C
:101D1000FFCFFFFFFF3FFFFFFFFFBFFFFFFFFFFE04
:101D2000104BD96A802252020A43DA62DA6A0E49FB
:101D30000A40DA6203684268134382681343C26848
:101D40001343026912041A43084B5A601A6808497F
:101D50000A40416909020A431A601A6860210A436D
:101D60001A60704700100240FFFFFEFF006C004049
:101D7000FF80FFFF30B5054C616901252943616192
:101D80000260BFF36F8F436030BDC0460020024049
:101D9000084B5B69002B01DB00207047054B064AAE
:101DA0009A60064A9A605B69002B01DB0020F4E729
:101DB0000120F2E70020024023016745AB89EFCD07
:101DC00070B5040000F0B0FA0500154B1A69C02385
:101DD0009B021A4208D0631CF7D000F0A5FA401B02
:101DE000A042F2D303201AE00D490A690D4B1600F8
:101DF0001E400D4808611A420CD1094B1B695B0358
:101E00000CD5631CF9D000F08FFA401BA042F4D32C
:101E1000032004E0054B5E60012000E0002070BD5F
:101E200000200240FAC30000FBC300005002002063
:101E3000F8B507000C0015001E00144B1B78012B91
:101E400022D0124B01221A7000225A60FA20800020
:101E5000FFF7B6FF00280DD1012F0FD02900200079
:101E600005F006F8FA208000FFF7AAFF084A536938
:101E7000BB435361054B00221A70F8BD2A003300A2
:101E80002000FFF777FFEDE70220F6E75002002081
:101E90000020024010B5FA208000FFF791FF064BAA
:101EA0005969802212060A435A615B69002B01DBE3
:101EB000012010BD0020FCE700200240034A5369C6
:101EC00003438020400218435061704700200240C5
:101ED000094B5B69094A1A40042809D080239B01F9
:101EE0001343C9001943064B0B43034A5361704720
:101EF000044A1340F5E7C0460020024007E0FFFF18
:101F00000200010007C0FFFF70B504000E001D4B6A
:101F10001B78012B34D01B4B01221A7000225A600F
:101F2000FA208000FFF74CFF002825D12368042BFE
:101F300014D001235B423360A568A368E2689B1854
:101F4000AB4214D960682900FFF7C2FFFA20800075
:101F5000FFF736FF002809D10135EEE76068FFF78B
:101F6000ADFFFA208000FFF72BFF05E03560064A41
:101F7000536902218B435361024B00221A7070BDDA
:101F80000220FCE75002002000200240F0B50023B0
:101F900059E086685F000324BC40A643CC68BC407F
:101FA00034438460446894434E68360901223240C9
:101FB0009A402243426056E0DE080836B6003758A1
:101FC00005321A4092000F249440A7430C699440B4
:101FD00022003A43325059E0042600E00026A64091
:101FE00034003C43444E1832920094513768EA431F
:101FF0003E00AE434C68E40201D53E002E433E4C09
:10200000266067683E0016404C68A40201D53E0079
:102010002E43394C66608426A7593E0016404C6812
:10202000A40301D53E002E43334C8427E65180267D
:10203000A65932404C68E40301D52A0032432E4DA4
:1020400080242A5101330C682200DA4053D0012247
:102050009A40250015401442F4D04E6803243440C1
:10206000013C012C95D94C6803222240032A08D058
:10207000C4685E000322B24094438A68B24022439F
:10208000C2604C6803222240022A95D004685E0098
:1020900003221700B740BC434F683A40B240224386
:1020A00002604C68C02292021442CBD09A081400FD
:1020B0001834A400104EA75903241C40E4000F2636
:1020C000A640B743A026F605B04287D00B4EB042DB
:1020D0000BD00B4EB0420AD00A4EB04209D00A4E85
:1020E000B04200D178E7052679E7012677E7022696
:1020F00075E7032673E7F0BD0018024000040050A6
:1021000000080050000C00500010005003690B4202
:1021100001D0012070470020FCE70000034A51680D
:102120008023DB000B4353607047C04600700040C3
:1021300010B5104A136810490B4003431360802305
:102140009B00984201D0002010BD0C4B1B6858002A
:10215000C01840000A49FDF7E1FF0130054B5B69FB
:102160005B0503D5002803D00138F7E70020EBE733
:102170000320E9E700700040FFF9FFFF080000209E
:1021800040420F0070B5002811DB8308134DC033A7
:102190009B005C5903221040C000FC3216008640B0
:1021A000B44389010A40824022435A5170BD0F2333
:1021B0000340083B9B0806339B00094A944663444E
:1021C0005C6803221040C000FC3215008540AC431F
:1021D00089010A40824022435A60E7E700E100E0BB
:1021E00000ED00E0013880235B0498420FD2094AD9
:1021F00050600948036A1B021B0AC02109060B43F1
:1022000003620023936007331360002070470120AE
:10221000FCE7C04610E000E000ED00E010B5FFF77D
:10222000B1FF10BD002805DB1F22024001239340AF
:10223000014A13607047C04600E100E000280ADB55
:102240001F22024001239340034980228B50BFF399
:102250004F8FBFF36F8F704700E100E010B5FFF7BD
:10226000C1FF10BD7047000010B5084B0121494265
:10227000D9620022DA6219631A6399629A6259621A
:102280005A62FFF7EFFF002010BDC0460010024069
:1022900070B50400114B1978002901D1012070BDDF
:1022A0000F4B1D68FA208000FDF738FF0100280061
:1022B000FDF734FFFFF7D2FF00280DD1032C01D921
:1022C0000120ECE70130002221004042FFF7A6FF89
:1022D000044B1C600020E2E70120E0E70000002042
:1022E000080000200400002010B5084A116880236F
:1022F0005B000B4313600320FFF7CAFF041E02D0EC
:102300000124200010BDFEF789FAFAE70020024000
:10231000034B1B78034A11685B1813607047C04673
:10232000000000206C020020014B18687047C04676
:102330006C02002070B50400FFF7F6FF0500631C77
:1023400002D0044B1B78E418FFF7EEFF401BA042BD
:10235000FAD370BD00000020034A136803490B4004
:10236000034313607047C04600000140FFF9FFFFC0
:102370007047000010B503000C4A0D49521A0D4970
:102380000968002907D00B490868C318934206D88A
:10239000084A136010BD074907480860F3E704F0D6
:1023A00007F80C23036001204042F3E700400220BD
:1023B0000004000070020020B01E002070B5154B14
:1023C0001C68154B1D68631C1FD014482A0021008F
:1023D00003F08AFD124802F0A1FB124800F0BEFA99
:1023E000FA204000FFF7A6FFFEF7FAFEFFF73CFFDA
:1023F0000D4B00221A605A609A6072B60B4B054A68
:102400009A6084F30888A847FEE70948014903F069
:102410006BFD70BD0080000804800008DC6E0008C1
:1024200080080020A005002010E000E000ED00E0A2
:10243000A06E000810B520210748FFF767FE0028AE
:1024400003D1064803F0B6FD10BD054803F0B2FD08
:10245000FFF7B4FFF8E7C046000400500C6F000817
:10246000246F000830B5050000240C480EE052002F
:102470000B48504080B20133DBB2072B05D802B2C3
:10248000002AF4DB400080B2F5E701348C4204D22C
:102490002B5D1B0258400023EFE730BDFFFF00001B
:1024A0002110000010B586B0F8231B06C418E40AFA
:1024B0000B4B1B68A3420FD002A802230293846037
:1024C000013BC36001A9FFF71FFD002806D1044BA3
:1024D0001C60013006B010BD0120FBE70020F9E7C9
:1024E0000C000020F0B583B007000E00150000249A
:1024F00000E00834AC420ED231190822684603F0DD
:1025000084FF009A019BE1190120FFF791FC00284C
:10251000EFD0002000E0012003B0F0BD70B5040052
:102520000D001600FFF734FC2000FFF7BBFF00286A
:1025300003D1FFF7AFFC002070BD3200290020005E
:10254000FFF7D0FF0400FFF7A5FC002C01D001200D
:10255000F2E70020F0E70000084A00231370084A61
:102560001380084A1360084B01221A60074B084A7F
:102570001A60084B012252421A6070477E03002005
:102580007C030020740200201400002010000020B2
:10259000008000080C000020024B802252001A80AC
:1025A000012070477C030020024B02221A70012098
:1025B0007047C0467E03002010B51A4B1B68012BE4
:1025C00015D019480223FF33C45C0133C35C1B02DE
:1025D0001C43802101304900FFF744FF0200844280
:1025E0000BD01248210003F07FFC012010BD0D4BE1
:1025F0000422FF321A600020F8E780220C490D4BBC
:1026000018685200FFF78AFF002805D0094A1368AE
:102610000133FF331360E9E7074803F0CBFC0120E7
:10262000E4E7C0461400002078020020486F00084C
:1026300079020020100000207C6F000810B5FFF721
:10264000BDFE012010BD000010B5114B1978032903
:1026500017D006D8012909D0022915D1FFF7A4FF08
:1026600006E0042910D1FFF7E9FF01E0FFF794FF2E
:10267000002805D0074B00221A60074B01321A6070
:1026800010BDFFF799FFF3E7044803F02DFCF1E7D5
:10269000780200207402002014000020946F0008CB
:1026A00070B506000D00002406E00D4B1A680D4BB6
:1026B0001B689A420FD00134AC420FD2084B1B6802
:1026C000822252009342F0D2054A591C1160315DBA
:1026D000054AD154E9E7FFF7B7FFECE770BDC04604
:1026E00074020020140000207802002070B50C0055
:1026F0001600002504E000E000BF20700135013421
:10270000B542F8DB300070BD0120404270478023A5
:102710009B014B60002070470120704700207047EC
:1027200082B00A23019302E0019B013B0193019BCC
:10273000002BF9D1CB00044A944663445868000C3E
:102740008005800D02B070470098004082B00A23D7
:10275000019302E0019B013B0193019B002BF9D106
:10276000CB00044A944663441868000C8005800D31
:1027700002B070470098004082B00A23019302E043
:10278000019B013B0193019B002BF9D1CB00044A33
:10279000944663445868000C8005800D02B0704771
:1027A00000980040F8B507000C001500530433D51D
:1027B00000680978FFF7CAFF03000600A269824299
:1027C00021D3121AA261A269002A0CD13A68217899
:1027D0008900521811682948014080208001484032
:1027E0002749014311606D0609D53A6821788900AF
:1027F0005218106823490840234901431160002EF4
:1028000004D13000F8BD0022A261DCE738682289DB
:10281000616901F083FEF4E700680978FFF7ACFF17
:1028200003000600A269824225D3121AA261A2699E
:10283000002A0CD13A6821788900521811680F4893
:1028400001408020800148400D49014311606D0620
:1028500009D43A682178890052181068094908405B
:10286000094901431160002ECBD038686289616943
:1028700001F054FEC5E70022A261D8E78FBFFF0731
:10288000808000008F8FFF07C080000070B582B08D
:10289000041E5ED0304BC35C002B07D02E4B0322AE
:1028A000E254206800F096FF002218E0A5239B0068
:1028B0000022C25401F06EFEF0E793009B18DB008B
:1028C000E318012159751A750021D9755962996269
:1028D000013293009B18DB00E3185960D2B22079D3
:1028E0009042EAD8002119E08A005318DB00E3186F
:1028F0001E005636FF3600253570013E3170033616
:1029000035700D3635606933FF331D605218D200C3
:10291000A2186D32FF3215600131C9B28842E3D886
:1029200020686B46227C1A706168A268E36800F038
:102930006CFF00236374084B0122E254237B012BBC
:1029400002D0002002B070BD200000F028FF00205F
:10295000F8E70120F6E7C0469502000070B5041EB6
:1029600011D00A4B0322C254006801F0B1FA051ECF
:1029700002D00125280070BD200001F053FE034B5A
:102980000022E254F6E70125F4E7C0469502000074
:1029900070B50400A5239B00C35C012B0DD0A525B9
:1029A000AD0001234355006800F00CFF206801F0E2
:1029B0009DFA00236355002070BD0220FCE770B52E
:1029C0000400A5239B00C35C012B0DD0A525AD0001
:1029D00001234355006800F0FDFE206801F08EFAE7
:1029E00000236355002070BD0220FCE770B506008F
:1029F0000C001500530600D403E100680978FFF7C6
:102A0000A5FE0200A369834223D91B1AA361A3690F
:102A1000002B21D06D0409D53368217889005B181B
:102A20001868CB490840CB49014319602423E35C73
:102A3000012B00D17BE0326823789B00D218136809
:102A4000C5490B4030214B40C4490B431360002063
:102A500070BD0023A361DAE76378002B38D12378B7
:102A6000DB00BF4A944663441A68920192091A60D7
:102A70002378DB0063441968802212060A431A6037
:102A80006378002B35D12378DB00B54A9446634444
:102A90005A68920192095A602378DB0063445968AE
:102AA000802212060A435A60E378022B32D0217842
:102AB000300001F0E7FD6D04C9D53368227892003B
:102AC0009B181968A24A1140A24A0A431A60BEE73D
:102AD000012BD5D12378DB00A14A944663441A68C0
:102AE0001204120C1A602378DB0063441A681A601F
:102AF000C6E7012BD8D12378DB00994A944663447A
:102B00005A681204120C5A602378DB0063445A6836
:102B10005A60C9E7326823789B00D21813688E493F
:102B20000B4020214B408D490B431360BFE7636985
:102B30009B186361E369D318E361216A23699942B1
:102B400018D3C91A21626278002A40D12278D200B3
:102B500083498C4662441168890189091160002B00
:102B600014D12278D2006244106880210906014302
:102B700011602EE0002903D12423E1541300E2E781
:102B800000232422A35423620B00DCE73E2B0DD844
:102B90005908DA0700D501312278D20070488446FE
:102BA0006244106889060143116012E05909DA068F
:102BB00000D101392278D200694884466244106805
:102BC00089060843802109060143116001E0012ABA
:102BD00006D030689BB22289616901F099F92AE731
:102BE0002278D2005E498C46624411680904090CBF
:102BF00011602278D2006244116818040143116008
:102C0000E7E700680978FFF7B7FD0200A369834290
:102C10003BD31B1AA361A369002B39D06D0409D4DF
:102C20003368217889005B18186849490840494988
:102C3000014319602423E35C012B00D0FBE66369A8
:102C40009B186361E369D318E361216A23699942A0
:102C500000D294E0C91A21626278002A00D0BBE059
:102C60002278D2003E498C46624451688901890924
:102C70005160002B00D08EE02278D2006244506870
:102C80008021090601435160A8E00023A361C2E747
:102C90006378002B39D12378DB00314A94466344B2
:102CA0001A68920192091A602378DB00634419685C
:102CB000802212060A431A606378002B36D12378EB
:102CC000DB00274A944663445A68920192095A608D
:102CD0002378DB0063445968802212060A435A6055
:102CE000E378022B3ED02178300001F0CBFC6D045C
:102CF00000D5ACE63368227892009B181968144A14
:102D00001140144A0A431A60A1E6012BD4D123785A
:102D1000DB00134A944663441A681204120C1A60CA
:102D20002378DB0063441A681A60C5E7012BD7D10A
:102D30002378DB000A4A944663445A681204120C52
:102D40005A602378DB0063445A685A60C8E7C0467B
:102D50008F8FFF0780C00000BF8FFF0780800000BB
:102D600000980040326823789B00D21813682749E6
:102D70000B4020214B4026490B431360B3E7002949
:102D800003D12423E154130066E7002323622422A5
:102D9000A3540B0060E73E2B0DD85908DA0700D585
:102DA00001312278D2001B4884466244506889066B
:102DB0000143516012E05909DA0600D10139227845
:102DC000D200144884466244506889060843802132
:102DD00009060143516001E0012A06D030689BB228
:102DE0006289616901F094F825E62278D2000949E8
:102DF0008C46624451680904090C51602278D20063
:102E000062445168180401435160E7E7BF8FFF0730
:102E10008080000000980040F8B5DE4657464E46D8
:102E20004546E0B5050047E00268DA4B1A408023CA
:102E30001B02134303602B7DDB00D74A9446634497
:102E40001B681B0C9B059B0D2B63AA6AD318AB62F6
:102E50000021280001F016FC6B7C002B2CD0EB6AC3
:102E6000002B29D16B7C2A68802149420B43DBB2BD
:102E7000D36400236B741FE0AA235B00E95CFFF7B7
:102E80004FFC03002A005532FF32D061082845D19B
:102E90002868A7229200A9182A005532FF32D2884A
:102EA00001F03CFB2A681368BC490B4080210B43AE
:102EB0001360280001F0CCFB2868436C1B0400D48D
:102EC0001AE2436C0F241C401A0700D51CE2002CA8
:102ED00052D1DB06A8D503681A05CDD41B04EBD567
:102EE0000368AE4A13408022134303602868AA2374
:102EF0005B00E95CFFF714FC03002A005532FF3247
:102F0000D061002824D129680B68A54A1340C0224B
:102F100092015A40A34B13430B60CDE729680A681E
:102F20009F4B1A4080235B0153409E4A13430B6022
:102F300029680B689C480340102043401A430A60EC
:102F40002A68136895490B4080210B431360D4E134
:102F50002A005532FF3251690029ADD0286814008B
:102F6000D28801F0DBFA6369E2699B186361002192
:102F7000280001F078FB9FE7A300994648440668C3
:102F8000B3B29B46330447D4330695D52200A30041
:102F90001919C90010316918043188462868484455
:102FA00007687C49394080273F020F4307601B199F
:102FB000DB00EB18DB7D012B00D1FBE0F60500D533
:102FC00094E1A3001B19DB00EB181E7DF30072498E
:102FD0008C4663441B681B0C9B059B0D671CB8004B
:102FE000C019C000281847689F4200D85FE101342B
:102FF000A0000019C0002818FF1A4760541CA00048
:103000000019C00028184068002800D057E131009E
:10301000280001F037FB4FE70368604A1340802225
:1030200013430360A0464B461F19FF005137FF377B
:10303000EF193A1D92461B19DB00EB186133FF3381
:103040001B78002B33D0A3001B19DB00EB1858337F
:10305000FF331B78022B6CD02968A3001B19DB00FF
:10306000EB185533FF331A7892008A1810684F49CD
:1030700008404F4901431160286819788B00C31834
:103080001B685B045CD5FFF761FB0300071E1BD0C8
:103090002868A1000919C90069180A005D32FF32C9
:1030A00012886931FF31096801F038FA0CE02868AC
:1030B0004B461B19DB00EB185533FF331978FFF72C
:1030C0002FFB0300071E25D143469B004344DB0032
:1030D000EB1818007130FF300168C91901606D33B9
:1030E000FF331B68002B09D043469B004344DB00A1
:1030F000EB186533FF331B689F4235D243469B0074
:103100004344DB00EB185533FF331978280001F0F6
:10311000AAFA39E7286849464144C90069180A00F3
:103120005B32FF3212886931FF31096801F0F6F92C
:10313000CAE75A4651462800FFF734FB0700C3E7A9
:10314000FFF71AFB0300071EBED02868A100414408
:10315000C90069180A005F32FF3212886931FF31F5
:10316000096801F0DBF9AFE743469B0042469A1835
:10317000D200AA186932FF3212684344DB00EB1810
:103180006933FF33D2191A602868514600F0EEFE09
:10319000FAE6C0460F8FFF07009800408F0FFF0729
:1031A0008FBFFF0780800000BF8FFF078F8FFF0753
:1031B000C0800000611C8B005B18DB00EB18002155
:1031C0005960A3001B19DB00EB1820331B78002B80
:1031D0001DD0760639D5A3001B19DB00EB185B7DEB
:1031E000002B1DD1A3001B19DB00EB18197DC900B2
:1031F00046488446614408688001800908601B7D58
:10320000DB006344186880210906014319609300BC
:103210009B18DB00EB18197D280001F033FA4BE610
:10322000012BF4D1A3001B19DB00EB18197DC90099
:1032300036488446614408680004000C08601B7D21
:10324000DB00634419681960E1E7A3001B19DB0088
:10325000EB185B7D002B15D1A3001B19DB00EB18CD
:10326000197DC90029488446614448688001800965
:1032700048601B7DDB0063445868802109060143D8
:103280005960C4E7012BC2D1A3001B19DB00EB1866
:10329000197DC9001D488446614448680004000C3B
:1032A00048601B7DDB00634459685960AFE7013417
:1032B000A0000019C0002818002444609EE6900079
:1032C0008018C0002818846AE418846201329000D3
:1032D0008418E4002C19A4688018C00028181B1951
:1032E00083602868414600F041FEE5E55A464146C4
:1032F0002800FFF77BFBDFE500242000F0BCBB4685
:10330000B246A946A046F8BD0124F6E70098004061
:1033100070B50400A5239B00C35C012B0BD0A52531
:10332000AD00012343554174006800F0D9FD00232E
:103330006355002070BD0220FCE7000010B50400BA
:10334000006800F0E3FD5049A0228A5852072ED5AC
:10335000020416D4420518D4420423D4820427D48C
:10336000C2042BD402054AD402065BD4820500D5E0
:1033700081E0C0051BD52268536C44490B4053645F
:1033800015E02000FFF748FD11E02268536C40492A
:103390000B405364200001F089F900212000FFF761
:1033A000B7FF04E02268536C3A490B40536410BDE8
:1033B0002268536C38490B405364F8E72268136C59
:1033C00004218B4313642268136C04318B43136410
:1033D000B3239B00E35C012B08D0200001F08AF9A5
:1033E0002268536C2D490B405364E0E7B3239B00E4
:1033F0000022E2540021200001F056FAEDE7226895
:10340000136C08210B4313642268536C24490B404E
:1034100053642268136C04210B431364200001F0F1
:1034200057F9C4E72268536C1E490B405364B32319
:103430009B00E35C002B1AD12268136C04210B4320
:1034400013642268136C04310B431364B3239B0091
:103450000122E25423685A6D92083C231340B4229F
:103460009200A3500739200001F01EFA9FE72000C8
:1034700001F02EF99BE72268536C0B490B40536413
:10348000200001F00CF992E700000140FFFE00006F
:10349000FFFB0000FFBF0000FFDF0000FFEF0000A8
:1034A000FFF700007FFF0000FFFD0000F8B50400FB
:1034B0000E0049B2002928DB07273740B800C119A0
:1034C000C9005131FF3161180431C019C000201802
:1034D0005630FF3000250570072030400870520537
:1034E000520D0A61CB70022B1DD0A5239B00E35C1B
:1034F000012B1BD0A525AD0001236355206800F0EA
:1035000099F9002363550020F8BD07253540A80030
:103510004119C9001031611804314019C000201848
:1035200001254575D8E700230B71DEE70220EBE7A4
:1035300070B5040008004BB2002B22DB07250D40BC
:10354000AB005919C9005131FF31611804315B19C1
:10355000DB00E3185633FF3300221A7007230340C1
:103560000B70A5239B00E35C012B18D0A525AD00B3
:1035700001236355206800F097FB0023635500206A
:1035800070BD07220A4093009918C90010316118D4
:1035900004319B18DB00E31801225A75DEE7022094
:1035A000EEE7F8B507260E40B400A119C900513165
:1035B000FF3141180431A519ED0045192F00693775
:1035C000FF373A602A006D32FF3213600432002365
:1035D00013605635FF352B70A419E40004195534D7
:1035E000FF342670006800F0C1FC0020F8BD0723FE
:1035F0000B409900C918C90040187130FF300068AD
:103600007047F8B5CE46474680B51F0007250D40E8
:10361000AB005919C90010314118043189465C19B1
:10362000E4000419A2626A1C944692006646961948
:10363000F600861977603826B046A044373E4146EA
:103640000E7067636244D200821800279760667527
:1036500025750068494600F089FC0020C0BCB946C9
:10366000B046F8BD70B504000B0007200840227971
:1036700082422FD34AB2002A20DB8A005118C900A7
:103680005131FF3161180431D218D200A2185632DC
:10369000FF320023137001238B700870A5239B0059
:1036A000E35C012B18D0A525AD00012363552068EC
:1036B00000F0A4FB00236355002070BD830019189F
:1036C000C9001031611804311B18DB00E318012216
:1036D0005A75E0E70120F0E70220EEE770B504003C
:1036E000080022790F230B409A4235D34BB2002BAE
:1036F00024DB07250D40AB005919C9005131FF31BA
:10370000611804315B19DB00E3185633FF330022E4
:103710001A7000238B70073303400B70A5239B00A6
:10372000E35C012B1AD0A525AD0001236355206869
:1037300000F088FB00236355002070BD07220A407B
:1037400093009918C9001031611804319B18DB00EF
:10375000E31801225A75DCE70120EEE70220ECE7CE
:1037600010B50C060DD507240C40A1000919C9009D
:10377000103140180430002A0BD10273C38000209E
:1037800010BD8C006118C9005131FF314018043060
:10379000F1E70122027303811B0C4381EFE710B5AF
:1037A00003680121B52292008150083A0024845414
:1037B0005A6D0A435A655A6D01310A435A65002011
:1037C00010BD000000234364014B036400207047D8
:1037D00080BF0000036C024A13400364002070475E
:1037E0007F40FFFF002905D1036C5B005B08036489
:1037F00008007047012906D1026C80231B06134381
:1038000003640020F5E70120F3E784B010B504005D
:1038100003910492059301220264036C93430364B1
:103820000021FFF7DFFF0023636410BC08BC04B075
:1038300018470000F0B503000C78A40004192268B2
:10384000CE480240C878022856D00AD8002811D0A5
:10385000012804D18020C000024300200DE0012097
:103860000BE0032804D1C020C0000243002004E084
:10387000012002E08025AD002A43C14D2A43226089
:103880000C78A2009A181668BE4F3E403443254378
:1038900015600A7B002A00D0A6E04A78002A37D0BB
:1038A0000A78D200B84CA44662441468240C24045C
:1038B00014600A78D20062441568CC88A408A40079
:1038C0002C4314600A7892009A181468640604D590
:1038D00015683D40AD4C2C431460CA78012A0DD0C8
:1038E0000A7892009B181A68A9490A4020214A4088
:1038F000A3490A431A607CE10020BEE70A789200DF
:103900009B181968A24A11409D4A0A431A6070E147
:103910000A78D2009C4CA44662445468240C2404C7
:1039200054600A78D20062445568CC88A408A40088
:103930002C4354600A78D20062445468A401A4095C
:1039400054600A69002A22D10A78D200624455687C
:10395000802424062C4354600A7892009A18146834
:10396000640405D51568874C25408A4C2C431460A7
:103970000A78002A2CD192009A18136886490B40C5
:10398000C021890159407E4B0B43136031E13E2A2F
:103990000DD85408D20700D501340A78D2007A4DE8
:1039A000AC4662445568A4062C435460D4E75409DD
:1039B000D20600D1013C0A78D200734DAC46624475
:1039C0005568A4062543802424062C435460C3E78D
:1039D00092009A18136870490B4080218901594060
:1039E000674B0B43136004E1CA78022A5ED00A7861
:1039F00092009A181568694C2540614C2C4314605C
:103A00000A78D200604CA44662441468240C240452
:103A100014600A78D200624415680C89A408A400D6
:103A20002C4314600A78D20062445468240C2404A5
:103A300054600A78D200624455684C89A408A400F6
:103A40002C4354604A78002A00D0E5E00A789200BE
:103A50009A181468640405D515684A4C25404D4CE5
:103A60002C4314600A7892009A181468640605D5ED
:103A70001568444C2540454C2C4314604A78002A74
:103A80003FD10A78D200404CA44662441468A40195
:103A9000A40914600A69002A12D10A78D20062448B
:103AA0001568802424062C4314602CE00A789200C8
:103AB0009A181568334C2540394C2C4314609FE705
:103AC0003E2A0DD85408D20700D501340A78D20016
:103AD0002D4DAC4662441568A4062C43146012E0D8
:103AE0005409D20600D1013C0A78D200264DAC46DA
:103AF00062441568A4062543802424062C431460E0
:103B000001E0012A17D04A78002A5CD10A78D20055
:103B10001D4CA44662445468A401A40954600A6977
:103B2000002A1AD10A78D2006244556880242406FB
:103B30002C43546049E00A78D200134CA4466244F6
:103B400014682404240C14600A78D20062441468B7
:103B50000D692D042C431460D5E73E2A22D8540861
:103B6000D20700D501340A78D200074DAC46624432
:103B70005568A4062C43546027E0C0468F89FF0790
:103B8000808000008F8FFF0700980040C0800000F9
:103B9000BF8FFF0780C000008FBFFF078F8EFF071A
:103BA000808100005409D20600D1013C0A78D2007D
:103BB000364DAC4662445568A4062543802424064D
:103BC0002C43546001E0012A14D00A7892009A181C
:103BD00015682F4C2540C024A4016C402D4D2C436A
:103BE00014600A7892009B181A682B490A40154302
:103BF0001D60F0BD0A78D200244CA446624454688B
:103C00002404240C54600A78D200624454680D697C
:103C10002D042C435460D8E70A7892009A1814684F
:103C2000640405D515681D4C25401D4C2C431460BB
:103C30000A7892009A181468640605D51568174C1E
:103C40002540184C2C431460CA78012A14D00A78F5
:103C500092009A181468104D2C4020256C400D4D90
:103C60002C4314600A7892009B181968084A114086
:103C7000084A0A431A60BCE70A7892009A18156845
:103C8000054C2540034C2C431460EBE700980040A2
:103C90008FBFFF0780800000BF8FFF078F8FFF0758
:103CA00080C00000C080000010B50B7B002B2FD11E
:103CB0004B78002B16D00B789B00C3181A6852065D
:103CC00005D51C68474A1440474A22431A600B78BE
:103CD0009B00C3181968454A1140454A0A431A60B7
:103CE000002010BD0B789B00C3181A68520405D53C
:103CF0001C683C4A14403F4A22431A600B789B00E0
:103D0000C31819683C4A1140394A0A431A60E7E768
:103D10004B78002B32D10B789B00C3181A685204E1
:103D200005D51C682F4A1440324A22431A600B788A
:103D30009B00C3181A68520605D51C68294A14400E
:103D4000294A22431A600B789B00C3181C68254A35
:103D50001440254A22431A600B789B00C3181A6846
:103D6000254C2240224C22431A600B789B00C3183A
:103D70001A681E490A4014431C60B1E70B789B0087
:103D8000C3181A68520405D51C68164A1440194A0B
:103D900022431A600B789B00C3181A68520605D597
:103DA0001C68104A1440104A22431A600B789B008A
:103DB000C3181C680B4A14400E4A22431A600B7841
:103DC0009B00C3181A68094C2240094C22431A6010
:103DD0000B789B00C0180368074A13401C4304601B
:103DE0007EE7C0468F8FFF07C0800000BF8FFF07B0
:103DF0008080000080C000008FBFFF074B78002B41
:103E00000CD00B789B00C01803680B4A134010229B
:103E100053400A4A13430360002070470B789B000D
:103E2000C0180368064A1340802252015A40034BCF
:103E300013430360F0E7C046BF8FFF078080000098
:103E40008FBFFF0710B54B78002B1AD00B789B0063
:103E5000C3181A68520605D51C68174A1440174A39
:103E600022431A60CB78012B23D00B789B00C31818
:103E70001A6813490A4020214A4012490A431A602D
:103E800017E00B789B00C3181A68520405D51C680C
:103E9000094A14400C4A22431A600B789B00C01850
:103EA00003680A4A1340C02292015A40054B13434B
:103EB0000360002010BDC0468F8FFF07C080000048
:103EC000BF8FFF078080000080C000008FBFFF070A
:103ED0000123036400234364033303640020704719
:103EE000002901D18023C36400207047826D8023A4
:103EF0001B0213438365002070470000836D024A54
:103F00001340836500207047FF7FFFFF406C7047C0
:103F100070B5DC1CA408032005001D40184200D029
:103F2000013C114B9C4662440CE008784B781B0224
:103F30000343887800041843CB781B06034308C268
:103F40000431013C002CF0D1002D0BD020000B7867
:103F5000C600B3401C4301300131013DADB2002D1C
:103F6000F5D1146070BDC0460098004070B50500E2
:103F70000C004B78012B15D00B7B002B00D0A1E25D
:103F80008B69002B00D07DE2CB78002B00D079E24A
:103F90000B789B00C3181968CE4A1140CE4A0A43D9
:103FA0001A6078E28E690A69964200D91600217B70
:103FB000002923D0E178022943D0226A921B226291
:103FC0002278910069180968490600D40EE2002B96
:103FD00000D0F5E1D200C14B9C46624453689B017E
:103FE0009B095360002E00D0C9E12378DB006344B5
:103FF0005968802212060A435A60F0E1B3B2E2889F
:1040000061692800FFF784FF2378DB00B34A9446F8
:1040100063441A681204120C1A602278D2006244B7
:10402000116836040E43166023789B00EB181A685B
:10403000AB490A4030214A40AA490A431A6000208D
:104040003CE2236A9A4200D379E123789B00EB1883
:104050001968A04A1140A04A0A431A60236A9B1BB0
:10406000236223789A00AA181268520600D4ADE0A1
:104070006278002A33D1DB00984A944663445A6838
:10408000920192095A60002E08D12378DB00634424
:104090005968802212060A435A6022E03E2E0DD84B
:1040A0007208F30700D501322378DB008B498C4678
:1040B0006344596892060A435A6012E07209F30693
:1040C00000D1013A2378DB0084498C466344596867
:1040D00092061143802212060A435A6001E0012A27
:1040E00025D06289B3B261692800FFF711FF6369C7
:1040F0009B196361236A2269934228D99B1B23621F
:104100006378002B48D12378DB00744A94466344DB
:104110001A68920192091A60002E1CD12378DB00E4
:1041200063441968802212060A431A6036E0DB00F5
:104130006A4A944663445A681204120C5A602378FF
:10414000DB0063445A6831040A435A60C9E700221D
:1041500022621E00D4E73E2E0DD87208F30700D568
:1041600001322378DB005D498C466344196892066E
:104170000A431A6012E07209F30600D1013A23786B
:10418000DB0056498C46634419689206114380222D
:1041900012060A431A6001E0012B06D02289B3B24D
:1041A00061692800FFF7B4FE3EE72378DB004B4A45
:1041B000944663441A681204120C1A602378DB00D8
:1041C00063441A6831040A431A60E7E76278002AF8
:1041D00033D1DB00414A944663441A689201920944
:1041E0001A60002E08D12378DB006344196880220E
:1041F00012060A431A6022E03E2E0DD87208F30719
:1042000000D501322378DB0034498C4663441968B9
:1042100092060A431A6012E07209F30600D1013ACD
:104220002378DB002D498C466344196892061143BC
:10423000802212060A431A6001E0012A25D0228951
:10424000B3B261692800FFF763FE63699B1963617C
:10425000236A2269934228D99B1B23626378002B2F
:1042600053D12378DB001D4A944663445A68920177
:1042700092095A60002E1CD12378DB0063445968F0
:10428000802212060A435A6041E0DB00134A94463A
:1042900063441A681204120C1A602378DB0063442A
:1042A0001A6831040A431A60C9E7002222621E001C
:1042B000D4E73E2E18D87208F30700D501322378D0
:1042C000DB0006498C466344596892060A435A60EB
:1042D0001DE0C0468F8FFF078081000000980040DE
:1042E000BF8FFF07808000007209F30600D1013AFA
:1042F0002378DB0083498C46634459689206114356
:10430000802212060A435A6001E0012B06D062891E
:10431000B3B261692800FFF7FBFD85E62378DB0077
:10432000784A944663445A681204120C5A602378FF
:10433000DB0063445A6831040A435A60E7E7227895
:104340009200AA1810687049084070490143116032
:104350002278D2006B498C46624411680904090C2A
:1043600011602278D2006244116818040143116080
:1043700022899BB261692800FFF7CAFD54E63E2EF0
:104380000DD87208F30700D501322378DB005D49B0
:104390008C466344596892060A435A601FE07209CA
:1043A000F30600D1013A2378DB0056498C4663447A
:1043B000596892061143802212060A435A600EE0A1
:1043C000D200504B9C46624453681B041B0C536044
:1043D0002378DB0063445A6831040A435A606289D7
:1043E000B3B261692800FFF793FD1DE6002B33D1BE
:1043F000D200444B9C46624413689B019B091360A6
:10440000002E08D12378DB0063441968802212064D
:104410000A431A602FE03E2E0DD87208F30700D52C
:1044200001322378DB0037498C46634419689206D1
:104430000A431A601FE07209F30600D1013A23789B
:10444000DB0030498C466344196892061143802290
:1044500012060A431A600EE0D2002A4B9C466244C0
:1044600013681B041B0C13602378DB0063441A6879
:1044700031040A431A602289B3B261692800FFF748
:1044800047FDD1E523789B00EB1819681E4A1140BF
:104490001E4A0A431A60A369226993420FD99B1AE4
:1044A000A36123789B00ED182B68194A1340C022A2
:1044B00092015A40154B13432B60002070BD00231E
:1044C000A361EEE7CB78022B04D0012B17D1002398
:1044D0008B61E6E7CB69002BE3D00B789B00C31818
:1044E0001A68510408D55206DBD51968094A1140EB
:1044F000094A0A431A60D4E75206D2D4F5E70120EC
:10450000DCE7C046009800408F8EFF0780800000E7
:104510008FBFFF078F8FFF07C080000070B5D81CCA
:10452000800803252C001C40114EB44662441D42F5
:104530000BD0013809E008CA0B701D0A4D701D0C24
:104540008D701B0ECB70043101380028F3D1002C84
:104550000CD01268FF230340DB001500DD400D7016
:1045600001300131013CA4B2002CF3D170BDC04632
:1045700000980040022804D005D8002800D003206D
:1045800070470120FCE70320FAE710B5FCF7C0F8FC
:1045900010BD000010B596B004004C22002103A805
:1045A00001F0B0FE22681C4B9A4201D016B010BD3B
:1045B00080235B04039303A8FDF734FA002825D178
:1045C000164BDA6B802189010A43DA63DA6B0A4001
:1045D0000192019ADB6BDB001BD4104CE36B802251
:1045E00052051343E363E36B13400293029BFDF711
:1045F00095FDE36B0A4A1340E36300220021082083
:10460000FDF70CFE0820FDF70DFECFE7FCF74AF89A
:10461000D6E7FDF783FDF0E7005C004000100240A4
:10462000FFFFFFEF10B50268064B9A4200D010BDA5
:10463000054AD36B05490B40D3630820FDF7FEFD07
:10464000F5E7C046005C004000100240FFDFFFFFBE
:1046500010B50100B7239B00C058403B9C46614405
:1046600000F0B6FA10BD10B50300B72292008058D2
:104670008A005218D2009B186933FF331A6800F081
:104680004DFB10BD10B50300B722920080588A0080
:104690005218D2009B189A6A00F0AEFB10BD10B5FC
:1046A000B7239B00C05800F023FB10BD70B5040079
:1046B000C379022B09D1B725AD006059012100F063
:1046C000F0FA605900F0B4FA70BDFBF7EBFFF2E7C7
:1046D00010B50400B7239B00C05800F0E5FAE37A58
:1046E000002B04D0024A136906210B43136110BD4D
:1046F00000ED00E010B50400C37A002B05D1B7230C
:104700009B00E05800F0E4FA10BD044A136906214A
:104710008B431361FFF739FFF1E7C04600ED00E07E
:1047200070B504002048B7239B00C450143BE050F0
:104730001E4B0360082303714371063BC371437230
:1047400000238372C372037343738373C37303744D
:10475000FEF79CF8002823D1B225AD00605918233C
:1047600000220021FEF7FCFF60595823002280211F
:10477000FEF7F6FF6059C02300228121FEF7F0FF0B
:10478000605988235B0000220121FEF7E9FF605990
:1047900080235B0000228221FEF7E2FF002070BD33
:1047A000FBF780FFD8E7C046A0050020005C004072
:1047B00010B5B2239B00C058FEF7D0F8FFF7DAFE21
:1047C00010BD10B5B2239B00C058FEF7E1F8FFF70B
:1047D000D1FE10BD10B5B2239B00C058FEF7EFF814
:1047E000FFF7C8FE10BD10B514001A00B2239B00DD
:1047F000C0582300FEF75AFEFFF7BCFE10BD10B5EF
:10480000B2239B00C058FEF793FEFFF7B3FE10BD26
:1048100010B5B2239B00C058FEF724FFFFF7AAFE95
:1048200010BD10B5B2239B00C058FEF757FFFFF72D
:10483000A1FE10BDB2239B00C3584AB2002A09DB77
:104840007F2211408A005218D2009B185733FF3341
:10485000187870477F2211408A005218D2009B18A6
:10486000987DF6E710B5B2239B00C058FEF750FDC7
:10487000FFF780FE10BD10B5B224A4000059FEF76A
:10488000C0FEFFF777FE10BD10B5B224A40000599A
:10489000FEF787FEFFF76EFE10BD10B5B2239B003A
:1048A000C058FEF7A4FE10BD10B5040000290FD0BB
:1048B000012915D1B7239B00C05800F0F5F9E37A20
:1048C000002B0DD00B4A136906210B43136107E03F
:1048D000C37A002B05D1B7239B00E05800F0F8F90C
:1048E00010BDFFF752FE034A136906218B43136183
:1048F000F1E7C04600ED00E000487047800300206B
:104900007047000010B512491248002200F0ECF880
:10491000002811D110490F4800F01CF900280ED1D1
:104920000E490C4801F0A1F900280BD1094800F00C
:1049300035F9002809D110BDFBF7B4FEEAE7FBF713
:10494000B1FEEDE7FBF7AEFEF0E7FBF7ABFEF2E7FB
:104950004C00002080080020C40000206C000020D3
:1049600012230B80004870473800002004230B807E
:10497000004870473400002030B500230AE05D0095
:1049800037344C5500015C0001340C1900252570AA
:104990000133DBB2934206D2040F092CEFD85D003D
:1049A00030344C55EEE730BD70B50B4B18680B4BEF
:1049B0001D680B4B1B68C018002800D170BD094C46
:1049C00008222100FFF7D8FF21001031042228001F
:1049D000FFF7D2FFF2E7C0469075FF1F9475FF1FE7
:1049E0009875FF1F1A00002010B51A230B80FFF7DF
:1049F000DBFF014810BDC0461800002010B50A00BA
:104A0000002805D10549064800F06EFE034810BD98
:104A10000249034800F068FEF8E7C0465C0B00203E
:104A2000B06F000810B50A00034C0448210000F0E4
:104A30005BFE200010BDC0465C0B0020C86F000864
:104A400010B50A00002805D10549064800F04CFEC3
:104A5000034810BD0249034800F046FEF8E7C0468F
:104A60005C0B0020DC6F000810B50A00002805D19F
:104A70000549064800F038FE034810BD02490348C6
:104A800000F032FEF8E7C0465C0B0020E86F00083B
:104A900000207047002070470020704770B5050067
:104AA0000968FDF7FDFD054C2900200001F0FCF828
:104AB000200001F008F9002070BDC04680080020E9
:104AC00010B50649064C0022200001F0DBF805492C
:104AD000200001F0E9F8002010BDC0465C0D002068
:104AE000800800205C15002010B5002814D0002399
:104AF000AE24A40003510C3403510C34035100299B
:104B000002D0AD239B00C150A7239B000121C154BB
:104B10000270FFF705FE10BD0320FCE710B504008E
:104B2000FFF758FEA7239B000122E2541C33E358F1
:104B3000002B03D05B682179200098470023B12225
:104B40009200A350103AA3501C32A3502000FFF74C
:104B50002FFE10BD10B582B004006B460022DA8033
:104B6000002919D0AE239B00C1501C33C358CA6A18
:104B7000002A09D0AE339B001B58DB6A6A46901DA1
:104B80009847B4239B00E050B6229200A35801330B
:104B9000A350002002B010BD0320FBE710B5FFF7C3
:104BA00010FE10BD10B5AE239B00C358002B02D0E1
:104BB0001B68984710BD0020FCE710B5AE239B0092
:104BC000C3585B689847002800D110BD0320FCE75C
:104BD00070B50400154BC518280000F0B7F9A523DF
:104BE0009B000122E2501C33E25A183BE2500F4B6B
:104BF000E15C1F230B40012B08D0022B0BD0002BB4
:104C00000ED12900200000F0C3FB70BD2900200058
:104C100000F0FAFBF9E72900200000F03CFCF4E783
:104C20007F2399432000FFF7F3FDEEE7AA0200007F
:104C3000F8B50400A7239B000122C2540023A5223B
:104C400092008350436010328350043A8354AE2361
:104C50009B00C358002B1ED05B68002B1DD0002189
:104C60009847051E1BD14023002200212000FFF79A
:104C7000BAFD0127B2235B00E7524026043BE65011
:104C8000213BFF3B002280212000FFF7ACFDA784E1
:104C900026622800F8BD0025E5E70025E3E70325A7
:104CA000E1E7017400207047A7239B00C35C042B3D
:104CB00005D0A7239B00C35CDBB2044A8354A7231F
:104CC0009B000422C25400207047C0469D02000091
:104CD000A7239B00C35C042B01D000207047034B2B
:104CE000C35CDBB2A72292008354F6E79D0200006A
:104CF00010B5A7239B00C35C032B01D0002010BD7F
:104D0000AE239B00C358002BF8D0DB69002BF5D0F5
:104D10009847F3E7002070470020704770B5040003
:104D20000D001100002D46D1A5239B00C358032B75
:104D300001D0280070BD02005532FF329368D2685E
:104D4000934209D82A4BC25C1F231340012B0FD07A
:104D5000022B1DD0280011E09B1A5530FF308360D4
:104D60009A4200D91A00200000F003FD2800E1E774
:104D7000204BC15CFFF7CEFF002804D1A7239B0086
:104D8000E35C032B09D0200000F0FBFC2800D1E7F6
:104D9000184BC15CFFF7C0FFEEE70300AE339B008A
:104DA0001B591A69002AEED0B5229200A0501B6947
:104DB00020009847E7E77F212940FFF7ADFF002853
:104DC00013D1A7229200A25C032AB3D10200AE3213
:104DD0009200125991690029ACD0B5218900605028
:104DE0009369290020009847A4E70020A2E7C04665
:104DF000AA020000AE02000070B504000D00110010
:104E0000002D4ED1A5239B00C358022B08D0A82308
:104E10009B00E05C002802D00022E254280070BD14
:104E2000C269036A9A420DD817D0A7239B00E35C9E
:104E3000032B28D080212000FFF7EAFC200000F09F
:104E4000ACFCE4E7D21AC26100F07AFC0023002235
:104E500000212000FFF718FDD9E782699342E4D8CA
:104E6000A6239B00C3589A42DFD20022002100F003
:104E700067FCA6239B000022E250002300212000B3
:104E8000FFF702FDC3E7AE239B00E358DA68002A70
:104E9000D0D0B52292000021A150DB6820009847B5
:104EA000C8E7802149422943C9B2FFF735FF0028EE
:104EB00013D1A7229200A25C032AB0D10200AE3225
:104EC0009200125951690029A9D0B521890060507A
:104ED0005369290020009847A1E700209FE70B882D
:104EE00002789B180B800378C018704730B583B0E8
:104EF00004000D008278C3781B02134302789342AA
:104F000018D96B46DA80A278E3781B0213436A460D
:104F1000063212889A420AD26B46991DFFF7DFFFCC
:104F20004378052BEFD18378AB42ECD100E0002031
:104F300003B030BD0020FBE70300002002E0013099
:104F4000C0B201331A78002AF9D170470B78037088
:104F50004B7843708A78CB781B02134343800A79DD
:104F60004B791B02134383808A79CB791B0213434D
:104F7000C380704710B504008021FFF749FC002171
:104F80002000FFF745FC10BD30B583B005000C00D4
:104F90006B460022DA804A88130A0F2B00D9D7E02B
:104FA0009B007349CB589F46AD239B00C358DB69D8
:104FB000002B05D0007C6A46911D984701000CE04B
:104FC0002100FFF7D7FFC7E0AD239B00C3581B6844
:104FD000007C6A46911D98470100E388002B00D1B0
:104FE000C1E06A4606321288002A00D1B6E0181CD9
:104FF000934200D9101C82B26B46D880280000F082
:1050000091FBA9E0037C002B0AD1AE239B00C3587F
:105010009B6A6A46901D9847010002234370DCE7B3
:10502000AE239B00C358DB6A6A46901D9847010077
:1050300002234370D1E7D2B2052A63D892004D4BC8
:105040009B589F46AD239B00C3585B68002B05D03F
:10505000007C6A46911D98470100BEE72100FFF7DA
:1050600089FF79E0AD239B00C3589B68002B05D0D6
:10507000007C6A46911D98470100AEE72100FFF7CA
:1050800079FF69E0AD239B00C358DB68002B05D096
:10509000007C6A46911D984701009EE72100FFF7BA
:1050A00069FF59E0AD239B00C3581B69002B05D055
:1050B000007C6A46911D984701008EE72100FFF7AA
:1050C00059FF49E0AD239B00C3585B69002B05D015
:1050D000007C6A46911D984701007EE72100FFF79A
:1050E00049FF39E0AD239B00C3589B69002B05D0D5
:1050F000007C6A46911D984701006EE72100FFF78A
:1051000039FF29E02100FFF735FF25E0037C002B64
:1051100008D1AE239B00C3585B6B6A46901D98472D
:1051200001005AE72100FFF725FF15E0037C002B63
:105130000AD1AE239B00C3581B6B6A46901D98474B
:1051400001000723437048E72100FFF713FF03E046
:1051500021002800FFF70EFF03B030BD210028001A
:10516000FFF708FFF8E7280000F00BFBF4E7C04664
:1051700080700008C070000870B504008B88002B98
:1051800023D1CB88002B20D14B887F2B1DD87F25A6
:105190001D40A7239B00C35C032B0ED00D4BC554B1
:1051A0002900FFF75FFB200000F0EBFA002D07D08D
:1051B000A7239B000222E2540AE0FFF7DBFE07E090
:1051C000A7239B000122E25402E02000FFF7D2FE59
:1051D00070BDC0469E02000070B505000E008C78C0
:1051E000334B1C70012C11D8A7239B00C35CDAB28F
:1051F000022B0FD0032A29D0FFF7BCFE2C4B1978C5
:105200002800FFF7DAFC0324200070BDFFF7B2FE90
:105210000324F9E7002C16D044602100FFF7C2FCFC
:10522000041E08D031002800FFF7A4FEA7239B002E
:105230000222EA54E8E7280000F0A3FAA7239B0023
:105240000322EA54E0E700F09CFADDE7002C1AD0D4
:1052500041688C4227D0C9B2FFF7AFFC144B1978D4
:1052600069602800FFF79EFC041E18D0310028005A
:10527000FFF780FE29792800FFF79FFCA7239B00FA
:105280000222EA54C0E7A7239B000222C2544460D2
:105290002100FFF792FC280000F073FAB4E7280021
:1052A00000F06FFAB0E700F06CFA0024ACE7C046FB
:1052B0005C1D002010B5CB88012B0CD1A7239B00CF
:1052C000C35CDBB2022B09D9032B11D1011D0122D2
:1052D00000F028FA01E0FFF74DFE10BD002B07D0CB
:1052E0000023836001000831012200F01BFAF4E77B
:1052F000FFF740FEF1E710B5A7239B00C35C013B1D
:10530000022B14D8CB88022B0ED10123C360A92312
:105310009B00C358002B01D00323C36001000C3154
:10532000022200F0FFF910BDFFF724FEFBE7FFF7B4
:1053300021FEF8E710B54B88012B04D0022B09D0D1
:10534000FFF718FE10BDA9239B000122C25000F0F8
:1053500018FAF7E78B881B0AA8229200835400F002
:1053600010FAEFE710B5A7239B00C35C013B022BAB
:105370000AD84B88012B00D010BDA9239B00002226
:10538000C25000F0FEF9F7E7FFF7F4FDF4E7000084
:1053900070B50B7860241C40202C07D0402C05D021
:1053A000002C0ED0FFF7E6FD002408E0B5239B009B
:1053B000C358AE339B001B589B68984704002000DD
:1053C00070BD4D78092D1AD8AB000E4AD3589F46B0
:1053D000FFF7DAFDF3E7FFF7CFFEF0E7FFF7FCFE9C
:1053E0000400ECE7FFF766FFE9E7FFF784FF2C0016
:1053F000E5E7FFF79FFFE2E7FFF7B4FFDFE7FFF71F
:10540000B9FDDCE7D870000870B505000C000A781B
:1054100060231340202B08D0402B06D0002B04D053
:10542000FFF7A8FD0026300070BDA7239B00EB5CB2
:10543000013B022B29D82179012905D92100280017
:10544000FFF798FD0026EEE72800FFF763FC002831
:105450000FD10300AE339B005B599A68002A12D02B
:10546000B5229200A8509B682100280098470600AA
:1054700000E00326E388002BD5D1002ED3D12800ED
:1054800000F07FF9CFE70326F4E721002800FFF7BB
:1054900071FD0026C7E7F0B5C64600B506000D0051
:1054A0008A880F790B7860241C40202C0AD0402C6D
:1054B00008D0002C1BD0FFF75DFD0024200080BC2D
:1054C000B846F0BD39003000FFF726FC041E00D0BE
:1054D00006E1B5239B00F050AE30800083599B68F5
:1054E000002BEBD02900300098470400E6E74B780A
:1054F0009846012B34D0032B04D0002B70D0FFF73B
:1055000039FDDBE7A7239B00C35CDAB2022B04D092
:10551000032A13D0FFF72EFDD0E7002F01D0802FF4
:1055200004D129003000FFF725FDC7E73900FFF758
:105530006FF980213000FFF76BF9BFE74B88002B34
:1055400006D1002F04D0802F02D0CB88002B03D0AF
:10555000300000F016F9B1E73900FFF759F9F7E725
:10556000A7239B00C35CDAB2022B04D0032A13D01A
:10557000FFF700FDA2E7002F01D0802F04D1290002
:105580003000FFF7F7FC99E73900FFF741F9802178
:105590003000FFF73DF991E74B88002B00D08DE7F5
:1055A0007B0619D1300000F0ECF839003000FFF72D
:1055B000B3FB002800D081E7B5239B00F050030027
:1055C000AE339B009B599B68002B00D18AE02900D9
:1055D00030009847040071E73900FFF722F9E1E74E
:1055E000A7239B00C35CD9B2022B06D0032929D084
:1055F0002900FFF7BFFC444660E7002F01D0802F51
:1056000012D1120615D47F233B409900C918890096
:105610005131FF317118043100230B600222300038
:1056200000F080F8444649E72900FFF7A3FC444610
:1056300044E77F233B409900C91889001031711855
:105640000431E9E751B2120622D40F223A40930006
:105650009B189B00C3186533FF331B88002B25D094
:10566000002928DB7F233B409C00E418A400513430
:10567000FF3434190434002F01D0802F24D10023AB
:10568000236002222100300000F04CF8444615E768
:105690000F223A4093009B189B00C3189B8C002B51
:1056A000DED12900FFF766FC444607E72900FFF733
:1056B00061FC444602E77F233B409C00E418A400C1
:1056C000103434190434D6E739003000FFF7B2F84B
:1056D000002802D001232360D3E700232360D0E712
:1056E0000024EBE60400E9E670B504000D001600A6
:1056F000002816D0FFF720FC013043009BB2338016
:105700002B7003236B70013B08E0EA5401345A1CF0
:10571000D2B2AA18002111700233DBB22278002A1B
:10572000F3D170BD10B51300A5229200022484505D
:105730008361C3610A000021FFF79DF8002010BDBE
:1057400010B513000A000021FFF795F8002010BDE6
:1057500010B51300A5229200032484503D3AFF3A6D
:105760008350043283500A000021FFF78DF8002097
:1057700010BD10B513000A000021FFF785F80020C6
:1057800010BD10B5A5239B000422C25000230022A7
:105790000021FFF770F8002010BD10B5A5239B0075
:1057A0000522C250002300220021FFF76DF80020DF
:1057B00010BD000010B5B5239B00C3581A00B032CD
:1057C00092001458002C13D080184368002B11D07D
:1057D00080229200A05CFF280ED09B68074AA25C42
:1057E0002100984780239B00FF22E254002010BD37
:1057F0000320FCE70020FAE70020F8E701020000A0
:105800000A23038000487047FC000020F8B5070019
:10581000114C82212000FFF769FB060001212000C6
:10582000FFF764FB050081212000FFF75FFB002EDE
:1058300001D01022B271002D03D040222A71002223
:105840006A71002803D04022027100224271432372
:105850003B800148F8BDC04680000020F8B5070035
:10586000114C82212000FFF741FB0600012120009E
:10587000FFF73CFB050081212000FFF737FB002EDE
:1058800001D01022B271002D03D040222A710022D3
:105890006A71002803D04022027100224271432322
:1058A0003B800148F8BDC04680000020F8B50700E5
:1058B000114C82212000FFF719FB06000121200076
:1058C000FFF714FB050081212000FFF70FFB002EDE
:1058D00001D01022B271002D03D000222A710232B1
:1058E0006A71002803D00022027102324271432300
:1058F0003B800148F8BDC0468000002070B5040020
:10590000B5239B00C358B0339B001D58002D13D006
:10591000FEF7C3FF83239B00E850C833E358B0333E
:105920009B00E4186368DB6883229200A918083A98
:10593000A8589847002070BD0320FCE7F8B5040084
:105940000D00B2239B00C2580C33C358B0339B00E8
:105950001E58002E34D00F270F40BB00DB199B00D0
:10596000C3189869002808D0BB00DB19DB00D218E7
:10597000516AFAF759FC002915D085239B000022B3
:10598000F250C033E358B0339B00E41863681B69DE
:10599000002B17D084229200B118083AB0582A0080
:1059A00098470020F8BDBB00DB199B00E3180022DC
:1059B0009A61002329002000FEF75DFF0020F1E737
:1059C0000320EFE70020EDE7F0B583B004000D0001
:1059D000B5239B00C1580B00B0339B001F58002318
:1059E0006A46D37101AA1380002F00D17FE02B7883
:1059F000602216001E401A4238D0202E70D1EA884C
:105A0000002A28D05BB2002B08DB6A7880239B0039
:105A1000FA54EA883F2A15D8D2B214E0B03189008E
:105A200041184B689B68687839009847EB881A1CC6
:105A3000072B00D9072292B239002000FFF772FE2F
:105A4000002651E040222B4BFA5439002000FFF78A
:105A50007FFE002648E0B031890041184B689B6802
:105A6000687800222900984700263DE06F780A2FC9
:105A700026D009D8002F13D0012F35D029002000BF
:105A8000FFF778FA03262FE00B2FF7D1A7239B000F
:105A9000C35C032B28D02900FFF76CFA032623E010
:105AA000A7239B00C35C032B04D02900FFF762FAF5
:105AB000032619E0022201A9FFF734FE3E0013E09D
:105AC000A7239B00C35C032B04D02900FFF752FAE5
:105AD000032609E001226B46D91DFFF723FE03E0F0
